{
  "contractName": "AuctionHouse",
  "abi": [
    {
      "anonymous": false,
      "inputs": [
        {
          "indexed": false,
          "internalType": "address",
          "name": "_owner",
          "type": "address"
        },
        {
          "indexed": false,
          "internalType": "uint256",
          "name": "_auctionId",
          "type": "uint256"
        }
      ],
      "name": "CanceledAuction",
      "type": "event"
    },
    {
      "anonymous": false,
      "inputs": [
        {
          "indexed": false,
          "internalType": "address",
          "name": "_owner",
          "type": "address"
        },
        {
          "indexed": false,
          "internalType": "uint256",
          "name": "_auctionId",
          "type": "uint256"
        }
      ],
      "name": "CreatedAuction",
      "type": "event"
    },
    {
      "anonymous": false,
      "inputs": [
        {
          "indexed": false,
          "internalType": "address",
          "name": "_owner",
          "type": "address"
        },
        {
          "indexed": false,
          "internalType": "uint256",
          "name": "_auctionId",
          "type": "uint256"
        }
      ],
      "name": "FinalizedAuction",
      "type": "event"
    },
    {
      "anonymous": false,
      "inputs": [
        {
          "indexed": false,
          "internalType": "address",
          "name": "_from",
          "type": "address"
        },
        {
          "indexed": false,
          "internalType": "uint256",
          "name": "_auctionId",
          "type": "uint256"
        }
      ],
      "name": "SuccessfulBid",
      "type": "event"
    },
    {
      "stateMutability": "nonpayable",
      "type": "fallback"
    },
    {
      "inputs": [
        {
          "internalType": "uint256",
          "name": "",
          "type": "uint256"
        },
        {
          "internalType": "uint256",
          "name": "",
          "type": "uint256"
        }
      ],
      "name": "auctionBids",
      "outputs": [
        {
          "internalType": "address payable",
          "name": "from",
          "type": "address"
        },
        {
          "internalType": "uint256",
          "name": "amount",
          "type": "uint256"
        }
      ],
      "stateMutability": "view",
      "type": "function",
      "constant": true
    },
    {
      "inputs": [
        {
          "internalType": "address",
          "name": "",
          "type": "address"
        },
        {
          "internalType": "uint256",
          "name": "",
          "type": "uint256"
        }
      ],
      "name": "auctionOwner",
      "outputs": [
        {
          "internalType": "uint256",
          "name": "",
          "type": "uint256"
        }
      ],
      "stateMutability": "view",
      "type": "function",
      "constant": true
    },
    {
      "inputs": [
        {
          "internalType": "uint256",
          "name": "",
          "type": "uint256"
        }
      ],
      "name": "auctions",
      "outputs": [
        {
          "internalType": "string",
          "name": "name",
          "type": "string"
        },
        {
          "internalType": "uint256",
          "name": "startPrice",
          "type": "uint256"
        },
        {
          "components": [
            {
              "internalType": "string",
              "name": "uri",
              "type": "string"
            },
            {
              "internalType": "string",
              "name": "itemName",
              "type": "string"
            },
            {
              "internalType": "string",
              "name": "itemDesc",
              "type": "string"
            },
            {
              "internalType": "uint256",
              "name": "auctionPrice",
              "type": "uint256"
            },
            {
              "internalType": "uint256",
              "name": "Id",
              "type": "uint256"
            }
          ],
          "internalType": "struct NFT.Item",
          "name": "nft",
          "type": "tuple"
        },
        {
          "internalType": "address",
          "name": "nftRepositoryAddress",
          "type": "address"
        },
        {
          "internalType": "address payable",
          "name": "owner",
          "type": "address"
        },
        {
          "internalType": "bool",
          "name": "active",
          "type": "bool"
        },
        {
          "internalType": "bool",
          "name": "finalized",
          "type": "bool"
        }
      ],
      "stateMutability": "view",
      "type": "function",
      "constant": true
    },
    {
      "inputs": [],
      "name": "getCount",
      "outputs": [
        {
          "internalType": "uint256",
          "name": "",
          "type": "uint256"
        }
      ],
      "stateMutability": "view",
      "type": "function",
      "constant": true
    },
    {
      "inputs": [
        {
          "internalType": "uint256",
          "name": "_auctionId",
          "type": "uint256"
        }
      ],
      "name": "getBidsCount",
      "outputs": [
        {
          "internalType": "uint256",
          "name": "",
          "type": "uint256"
        }
      ],
      "stateMutability": "view",
      "type": "function",
      "constant": true
    },
    {
      "inputs": [
        {
          "internalType": "address",
          "name": "_owner",
          "type": "address"
        }
      ],
      "name": "getAuctionsOf",
      "outputs": [
        {
          "internalType": "uint256[]",
          "name": "",
          "type": "uint256[]"
        }
      ],
      "stateMutability": "view",
      "type": "function",
      "constant": true
    },
    {
      "inputs": [
        {
          "internalType": "uint256",
          "name": "_auctionId",
          "type": "uint256"
        }
      ],
      "name": "getCurrentBid",
      "outputs": [
        {
          "internalType": "uint256",
          "name": "",
          "type": "uint256"
        },
        {
          "internalType": "address",
          "name": "",
          "type": "address"
        }
      ],
      "stateMutability": "view",
      "type": "function",
      "constant": true
    },
    {
      "inputs": [
        {
          "internalType": "address",
          "name": "_owner",
          "type": "address"
        }
      ],
      "name": "getAuctionsCountOfOwner",
      "outputs": [
        {
          "internalType": "uint256",
          "name": "",
          "type": "uint256"
        }
      ],
      "stateMutability": "view",
      "type": "function",
      "constant": true
    },
    {
      "inputs": [
        {
          "internalType": "uint256",
          "name": "_auctionId",
          "type": "uint256"
        }
      ],
      "name": "getAuctionById",
      "outputs": [
        {
          "components": [
            {
              "internalType": "string",
              "name": "name",
              "type": "string"
            },
            {
              "internalType": "uint256",
              "name": "startPrice",
              "type": "uint256"
            },
            {
              "components": [
                {
                  "internalType": "string",
                  "name": "uri",
                  "type": "string"
                },
                {
                  "internalType": "string",
                  "name": "itemName",
                  "type": "string"
                },
                {
                  "internalType": "string",
                  "name": "itemDesc",
                  "type": "string"
                },
                {
                  "internalType": "uint256",
                  "name": "auctionPrice",
                  "type": "uint256"
                },
                {
                  "internalType": "uint256",
                  "name": "Id",
                  "type": "uint256"
                }
              ],
              "internalType": "struct NFT.Item",
              "name": "nft",
              "type": "tuple"
            },
            {
              "internalType": "address",
              "name": "nftRepositoryAddress",
              "type": "address"
            },
            {
              "internalType": "address payable",
              "name": "owner",
              "type": "address"
            },
            {
              "internalType": "bool",
              "name": "active",
              "type": "bool"
            },
            {
              "internalType": "bool",
              "name": "finalized",
              "type": "bool"
            }
          ],
          "internalType": "struct AuctionHouse.Auction",
          "name": "",
          "type": "tuple"
        }
      ],
      "stateMutability": "view",
      "type": "function",
      "constant": true
    },
    {
      "inputs": [
        {
          "internalType": "address",
          "name": "_nftRepositoryAddress",
          "type": "address"
        },
        {
          "internalType": "string",
          "name": "_auctionTitle",
          "type": "string"
        },
        {
          "components": [
            {
              "internalType": "string",
              "name": "uri",
              "type": "string"
            },
            {
              "internalType": "string",
              "name": "itemName",
              "type": "string"
            },
            {
              "internalType": "string",
              "name": "itemDesc",
              "type": "string"
            },
            {
              "internalType": "uint256",
              "name": "auctionPrice",
              "type": "uint256"
            },
            {
              "internalType": "uint256",
              "name": "Id",
              "type": "uint256"
            }
          ],
          "internalType": "struct NFT.Item",
          "name": "_nft",
          "type": "tuple"
        },
        {
          "internalType": "uint256",
          "name": "_startPrice",
          "type": "uint256"
        }
      ],
      "name": "createAuction",
      "outputs": [
        {
          "internalType": "bool",
          "name": "",
          "type": "bool"
        }
      ],
      "stateMutability": "nonpayable",
      "type": "function"
    },
    {
      "inputs": [
        {
          "internalType": "uint256",
          "name": "_auctionId",
          "type": "uint256"
        }
      ],
      "name": "cancelAuction",
      "outputs": [],
      "stateMutability": "nonpayable",
      "type": "function"
    },
    {
      "inputs": [
        {
          "internalType": "uint256",
          "name": "_auctionId",
          "type": "uint256"
        }
      ],
      "name": "finalizeAuction",
      "outputs": [],
      "stateMutability": "nonpayable",
      "type": "function"
    },
    {
      "inputs": [
        {
          "internalType": "uint256",
          "name": "_auctionId",
          "type": "uint256"
        }
      ],
      "name": "bidOnAuction",
      "outputs": [],
      "stateMutability": "payable",
      "type": "function",
      "payable": true
    }
  ],
  "bytecode": "0x608060405234801561001057600080fd5b50613129806100206000396000f3fe6080604052600436106100c65760003560e01c8063a87d942c1161007f578063cc43046811610059578063cc430468146102be578063d56aa558146102fb578063da4e364f14610338578063e808386314610376576100c7565b8063a87d942c14610219578063b1b61bfa14610244578063c8756cda14610281576100c7565b806318111ada146100d957806326b7aeea146101165780634008f9c014610132578063571a26a01461016f5780635f93de49146101b257806396b5a755146101f0576100c7565b5b3480156100d357600080fd5b50600080fd5b3480156100e557600080fd5b5061010060048036038101906100fb91906127cc565b61039f565b60405161010d9190612d0d565b60405180910390f35b610130600480360381019061012b91906127cc565b610737565b005b34801561013e57600080fd5b50610159600480360381019061015491906127cc565b610d67565b6040516101669190612d2f565b60405180910390f35b34801561017b57600080fd5b50610196600480360381019061019191906127cc565b610d87565b6040516101a99796959493929190612c50565b60405180910390f35b3480156101be57600080fd5b506101d960048036038101906101d491906127f9565b61108f565b6040516101e7929190612b8a565b60405180910390f35b3480156101fc57600080fd5b50610217600480360381019061021291906127cc565b6110f0565b005b34801561022557600080fd5b5061022e6116e8565b60405161023b9190612d2f565b60405180910390f35b34801561025057600080fd5b5061026b60048036038101906102669190612693565b6116f4565b6040516102789190612c13565b60405180910390f35b34801561028d57600080fd5b506102a860048036038101906102a3919061278c565b611791565b6040516102b59190612d2f565b60405180910390f35b3480156102ca57600080fd5b506102e560048036038101906102e091906126ed565b6117c2565b6040516102f29190612c35565b60405180910390f35b34801561030757600080fd5b50610322600480360381019061031d9190612693565b611bcd565b60405161032f9190612d2f565b60405180910390f35b34801561034457600080fd5b5061035f600480360381019061035a91906127cc565b611c19565b60405161036d929190612d4a565b60405180910390f35b34801561038257600080fd5b5061039d600480360381019061039891906127cc565b611d11565b005b6103a761238f565b600082815481106103bb576103ba612fc0565b5b90600052602060002090600902016040518060e00160405290816000820180546103e490612eff565b80601f016020809104026020016040519081016040528092919081815260200182805461041090612eff565b801561045d5780601f106104325761010080835404028352916020019161045d565b820191906000526020600020905b81548152906001019060200180831161044057829003601f168201915b5050505050815260200160018201548152602001600282016040518060a001604052908160008201805461049090612eff565b80601f01602080910402602001604051908101604052809291908181526020018280546104bc90612eff565b80156105095780601f106104de57610100808354040283529160200191610509565b820191906000526020600020905b8154815290600101906020018083116104ec57829003601f168201915b5050505050815260200160018201805461052290612eff565b80601f016020809104026020016040519081016040528092919081815260200182805461054e90612eff565b801561059b5780601f106105705761010080835404028352916020019161059b565b820191906000526020600020905b81548152906001019060200180831161057e57829003601f168201915b505050505081526020016002820180546105b490612eff565b80601f01602080910402602001604051908101604052809291908181526020018280546105e090612eff565b801561062d5780601f106106025761010080835404028352916020019161062d565b820191906000526020600020905b81548152906001019060200180831161061057829003601f168201915b505050505081526020016003820154815260200160048201548152505081526020016007820160009054906101000a900473ffffffffffffffffffffffffffffffffffffffff1673ffffffffffffffffffffffffffffffffffffffff1673ffffffffffffffffffffffffffffffffffffffff1681526020016008820160009054906101000a900473ffffffffffffffffffffffffffffffffffffffff1673ffffffffffffffffffffffffffffffffffffffff1673ffffffffffffffffffffffffffffffffffffffff1681526020016008820160149054906101000a900460ff161515151581526020016008820160159054906101000a900460ff1615151515815250509050919050565b6000349050600080838154811061075157610750612fc0565b5b90600052602060002090600902016040518060e001604052908160008201805461077a90612eff565b80601f01602080910402602001604051908101604052809291908181526020018280546107a690612eff565b80156107f35780601f106107c8576101008083540402835291602001916107f3565b820191906000526020600020905b8154815290600101906020018083116107d657829003601f168201915b5050505050815260200160018201548152602001600282016040518060a001604052908160008201805461082690612eff565b80601f016020809104026020016040519081016040528092919081815260200182805461085290612eff565b801561089f5780601f106108745761010080835404028352916020019161089f565b820191906000526020600020905b81548152906001019060200180831161088257829003601f168201915b505050505081526020016001820180546108b890612eff565b80601f01602080910402602001604051908101604052809291908181526020018280546108e490612eff565b80156109315780601f1061090657610100808354040283529160200191610931565b820191906000526020600020905b81548152906001019060200180831161091457829003601f168201915b5050505050815260200160028201805461094a90612eff565b80601f016020809104026020016040519081016040528092919081815260200182805461097690612eff565b80156109c35780601f10610998576101008083540402835291602001916109c3565b820191906000526020600020905b8154815290600101906020018083116109a657829003601f168201915b505050505081526020016003820154815260200160048201548152505081526020016007820160009054906101000a900473ffffffffffffffffffffffffffffffffffffffff1673ffffffffffffffffffffffffffffffffffffffff1673ffffffffffffffffffffffffffffffffffffffff1681526020016008820160009054906101000a900473ffffffffffffffffffffffffffffffffffffffff1673ffffffffffffffffffffffffffffffffffffffff1673ffffffffffffffffffffffffffffffffffffffff1681526020016008820160149054906101000a900460ff161515151581526020016008820160159054906101000a900460ff16151515158152505090503373ffffffffffffffffffffffffffffffffffffffff16816080015173ffffffffffffffffffffffffffffffffffffffff161415610b0557600080fd5b600060016000858152602001908152602001600020805490509050600082602001519050610b31612402565b6000831115610bee5760016000878152602001908152602001600020600184610b5a9190612e2f565b81548110610b6b57610b6a612fc0565b5b90600052602060002090600202016040518060400160405290816000820160009054906101000a900473ffffffffffffffffffffffffffffffffffffffff1673ffffffffffffffffffffffffffffffffffffffff1673ffffffffffffffffffffffffffffffffffffffff1681526020016001820154815250509050806020015191505b81851015610bfb57600080fd5b6000831115610c4b57806000015173ffffffffffffffffffffffffffffffffffffffff166108fc82602001519081150290604051600060405180830381858888f19350505050610c4a57600080fd5b5b610c53612402565b33816000019073ffffffffffffffffffffffffffffffffffffffff16908173ffffffffffffffffffffffffffffffffffffffff1681525050858160200181815250506001600088815260200190815260200160002081908060018154018082558091505060019003906000526020600020906002020160009091909190915060008201518160000160006101000a81548173ffffffffffffffffffffffffffffffffffffffff021916908373ffffffffffffffffffffffffffffffffffffffff1602179055506020820151816001015550507f692ceecced930663a40b6237c0bb4e50098df155cd6ba66a32667f836baed2183388604051610d56929190612bea565b60405180910390a150505050505050565b600060016000838152602001908152602001600020805490509050919050565b60008181548110610d9757600080fd5b9060005260206000209060090201600091509050806000018054610dba90612eff565b80601f0160208091040260200160405190810160405280929190818152602001828054610de690612eff565b8015610e335780601f10610e0857610100808354040283529160200191610e33565b820191906000526020600020905b815481529060010190602001808311610e1657829003601f168201915b505050505090806001015490806002016040518060a0016040529081600082018054610e5e90612eff565b80601f0160208091040260200160405190810160405280929190818152602001828054610e8a90612eff565b8015610ed75780601f10610eac57610100808354040283529160200191610ed7565b820191906000526020600020905b815481529060010190602001808311610eba57829003601f168201915b50505050508152602001600182018054610ef090612eff565b80601f0160208091040260200160405190810160405280929190818152602001828054610f1c90612eff565b8015610f695780601f10610f3e57610100808354040283529160200191610f69565b820191906000526020600020905b815481529060010190602001808311610f4c57829003601f168201915b50505050508152602001600282018054610f8290612eff565b80601f0160208091040260200160405190810160405280929190818152602001828054610fae90612eff565b8015610ffb5780601f10610fd057610100808354040283529160200191610ffb565b820191906000526020600020905b815481529060010190602001808311610fde57829003601f168201915b5050505050815260200160038201548152602001600482015481525050908060070160009054906101000a900473ffffffffffffffffffffffffffffffffffffffff16908060080160009054906101000a900473ffffffffffffffffffffffffffffffffffffffff16908060080160149054906101000a900460ff16908060080160159054906101000a900460ff16905087565b600160205281600052604060002081815481106110ab57600080fd5b9060005260206000209060020201600091509150508060000160009054906101000a900473ffffffffffffffffffffffffffffffffffffffff16908060010154905082565b803373ffffffffffffffffffffffffffffffffffffffff166000828154811061111c5761111b612fc0565b5b906000526020600020906009020160080160009054906101000a900473ffffffffffffffffffffffffffffffffffffffff1673ffffffffffffffffffffffffffffffffffffffff16146111a4576040517f08c379a000000000000000000000000000000000000000000000000000000000815260040161119b90612ccd565b60405180910390fd5b60008083815481106111b9576111b8612fc0565b5b90600052602060002090600902016040518060e00160405290816000820180546111e290612eff565b80601f016020809104026020016040519081016040528092919081815260200182805461120e90612eff565b801561125b5780601f106112305761010080835404028352916020019161125b565b820191906000526020600020905b81548152906001019060200180831161123e57829003601f168201915b5050505050815260200160018201548152602001600282016040518060a001604052908160008201805461128e90612eff565b80601f01602080910402602001604051908101604052809291908181526020018280546112ba90612eff565b80156113075780601f106112dc57610100808354040283529160200191611307565b820191906000526020600020905b8154815290600101906020018083116112ea57829003601f168201915b5050505050815260200160018201805461132090612eff565b80601f016020809104026020016040519081016040528092919081815260200182805461134c90612eff565b80156113995780601f1061136e57610100808354040283529160200191611399565b820191906000526020600020905b81548152906001019060200180831161137c57829003601f168201915b505050505081526020016002820180546113b290612eff565b80601f01602080910402602001604051908101604052809291908181526020018280546113de90612eff565b801561142b5780601f106114005761010080835404028352916020019161142b565b820191906000526020600020905b81548152906001019060200180831161140e57829003601f168201915b505050505081526020016003820154815260200160048201548152505081526020016007820160009054906101000a900473ffffffffffffffffffffffffffffffffffffffff1673ffffffffffffffffffffffffffffffffffffffff1673ffffffffffffffffffffffffffffffffffffffff1681526020016008820160009054906101000a900473ffffffffffffffffffffffffffffffffffffffff1673ffffffffffffffffffffffffffffffffffffffff1673ffffffffffffffffffffffffffffffffffffffff1681526020016008820160149054906101000a900460ff161515151581526020016008820160159054906101000a900460ff1615151515815250509050600060016000858152602001908152602001600020805490509050600081111561164a576000600160008681526020019081526020016000206001836115769190612e2f565b8154811061158757611586612fc0565b5b90600052602060002090600202016040518060400160405290816000820160009054906101000a900473ffffffffffffffffffffffffffffffffffffffff1673ffffffffffffffffffffffffffffffffffffffff1673ffffffffffffffffffffffffffffffffffffffff1681526020016001820154815250509050806000015173ffffffffffffffffffffffffffffffffffffffff166108fc82602001519081150290604051600060405180830381858888f1935050505061164857600080fd5b505b61166630836080015184606001518560400151608001516122a0565b156116e25760008085815481106116805761167f612fc0565b5b906000526020600020906009020160080160146101000a81548160ff0219169083151502179055507f7ae0b2dad8211114d3703f3eae564996deaa436d58d3860aff659ddc284b58ec33856040516116d9929190612bea565b60405180910390a15b50505050565b60008080549050905090565b60606000600260008473ffffffffffffffffffffffffffffffffffffffff1673ffffffffffffffffffffffffffffffffffffffff16815260200190815260200160002080548060200260200160405190810160405280929190818152602001828054801561178157602002820191906000526020600020905b81548152602001906001019080831161176d575b5050505050905080915050919050565b600260205281600052604060002081815481106117ad57600080fd5b90600052602060002001600091509150505481565b6000848360008273ffffffffffffffffffffffffffffffffffffffff16636352211e83608001516040518263ffffffff1660e01b81526004016118059190612d2f565b60206040518083038186803b15801561181d57600080fd5b505afa158015611831573d6000803e3d6000fd5b505050506040513d601f19601f8201168201806040525081019061185591906126c0565b90503073ffffffffffffffffffffffffffffffffffffffff168173ffffffffffffffffffffffffffffffffffffffff16146118c5576040517f08c379a00000000000000000000000000000000000000000000000000000000081526004016118bc90612ced565b60405180910390fd5b6000808054905090506118d661238f565b8881600001819052508681602001818152505087816040018190525089816060019073ffffffffffffffffffffffffffffffffffffffff16908173ffffffffffffffffffffffffffffffffffffffff168152505033816080019073ffffffffffffffffffffffffffffffffffffffff16908173ffffffffffffffffffffffffffffffffffffffff168152505060018160a001901515908115158152505060008160c0019015159081151581525050600081908060018154018082558091505060019003906000526020600020906009020160009091909190915060008201518160000190805190602001906119cc929190612432565b506020820151816001015560408201518160020160008201518160000190805190602001906119fc929190612432565b506020820151816001019080519060200190611a19929190612432565b506040820151816002019080519060200190611a36929190612432565b506060820151816003015560808201518160040155505060608201518160070160006101000a81548173ffffffffffffffffffffffffffffffffffffffff021916908373ffffffffffffffffffffffffffffffffffffffff16021790555060808201518160080160006101000a81548173ffffffffffffffffffffffffffffffffffffffff021916908373ffffffffffffffffffffffffffffffffffffffff16021790555060a08201518160080160146101000a81548160ff02191690831515021790555060c08201518160080160156101000a81548160ff0219169083151502179055505050600260003373ffffffffffffffffffffffffffffffffffffffff1673ffffffffffffffffffffffffffffffffffffffff1681526020019081526020016000208290806001815401808255809150506001900390600052602060002001600090919091909150557fcf8446482135407f31d60f0c9ef9f194cc148cdeeecddf7a034b2ccd202f1fa93383604051611bb4929190612bea565b60405180910390a1600195505050505050949350505050565b6000600260008373ffffffffffffffffffffffffffffffffffffffff1673ffffffffffffffffffffffffffffffffffffffff168152602001908152602001600020805490509050919050565b6000806000600160008581526020019081526020016000208054905090506000811115611d0357600060016000868152602001908152602001600020600183611c629190612e2f565b81548110611c7357611c72612fc0565b5b90600052602060002090600202016040518060400160405290816000820160009054906101000a900473ffffffffffffffffffffffffffffffffffffffff1673ffffffffffffffffffffffffffffffffffffffff1673ffffffffffffffffffffffffffffffffffffffff168152602001600182015481525050905080602001518160000151935093505050611d0c565b60008092509250505b915091565b6000808281548110611d2657611d25612fc0565b5b90600052602060002090600902016040518060e0016040529081600082018054611d4f90612eff565b80601f0160208091040260200160405190810160405280929190818152602001828054611d7b90612eff565b8015611dc85780601f10611d9d57610100808354040283529160200191611dc8565b820191906000526020600020905b815481529060010190602001808311611dab57829003601f168201915b5050505050815260200160018201548152602001600282016040518060a0016040529081600082018054611dfb90612eff565b80601f0160208091040260200160405190810160405280929190818152602001828054611e2790612eff565b8015611e745780601f10611e4957610100808354040283529160200191611e74565b820191906000526020600020905b815481529060010190602001808311611e5757829003601f168201915b50505050508152602001600182018054611e8d90612eff565b80601f0160208091040260200160405190810160405280929190818152602001828054611eb990612eff565b8015611f065780601f10611edb57610100808354040283529160200191611f06565b820191906000526020600020905b815481529060010190602001808311611ee957829003601f168201915b50505050508152602001600282018054611f1f90612eff565b80601f0160208091040260200160405190810160405280929190818152602001828054611f4b90612eff565b8015611f985780601f10611f6d57610100808354040283529160200191611f98565b820191906000526020600020905b815481529060010190602001808311611f7b57829003601f168201915b505050505081526020016003820154815260200160048201548152505081526020016007820160009054906101000a900473ffffffffffffffffffffffffffffffffffffffff1673ffffffffffffffffffffffffffffffffffffffff1673ffffffffffffffffffffffffffffffffffffffff1681526020016008820160009054906101000a900473ffffffffffffffffffffffffffffffffffffffff1673ffffffffffffffffffffffffffffffffffffffff1673ffffffffffffffffffffffffffffffffffffffff1681526020016008820160149054906101000a900460ff161515151581526020016008820160159054906101000a900460ff161515151581525050905060006001600084815260200190815260200160002080549050905060008114156120cf576120ca836110f0565b61229b565b6000600160008581526020019081526020016000206001836120f19190612e2f565b8154811061210257612101612fc0565b5b90600052602060002090600202016040518060400160405290816000820160009054906101000a900473ffffffffffffffffffffffffffffffffffffffff1673ffffffffffffffffffffffffffffffffffffffff1673ffffffffffffffffffffffffffffffffffffffff1681526020016001820154815250509050826080015173ffffffffffffffffffffffffffffffffffffffff166108fc82602001519081150290604051600060405180830381858888f193505050506121c357600080fd5b6121df30826000015185606001518660400151608001516122a0565b156122995760008085815481106121f9576121f8612fc0565b5b906000526020600020906009020160080160146101000a81548160ff02191690831515021790555060016000858154811061223757612236612fc0565b5b906000526020600020906009020160080160156101000a81548160ff0219169083151502179055507fb37c6facc72978f5c24f828700b3f6470d8a0ef17315bb4e4c47852cb229e73f3385604051612290929190612bea565b60405180910390a15b505b505050565b6000808390508073ffffffffffffffffffffffffffffffffffffffff1663095ea7b386856040518363ffffffff1660e01b81526004016122e1929190612bea565b600060405180830381600087803b1580156122fb57600080fd5b505af115801561230f573d6000803e3d6000fd5b505050508073ffffffffffffffffffffffffffffffffffffffff166323b872dd8787866040518463ffffffff1660e01b815260040161235093929190612bb3565b600060405180830381600087803b15801561236a57600080fd5b505af115801561237e573d6000803e3d6000fd5b505050506001915050949350505050565b6040518060e0016040528060608152602001600081526020016123b06124b8565b8152602001600073ffffffffffffffffffffffffffffffffffffffff168152602001600073ffffffffffffffffffffffffffffffffffffffff1681526020016000151581526020016000151581525090565b6040518060400160405280600073ffffffffffffffffffffffffffffffffffffffff168152602001600081525090565b82805461243e90612eff565b90600052602060002090601f01602090048101928261246057600085556124a7565b82601f1061247957805160ff19168380011785556124a7565b828001600101855582156124a7579182015b828111156124a657825182559160200191906001019061248b565b5b5090506124b491906124e7565b5090565b6040518060a0016040528060608152602001606081526020016060815260200160008152602001600081525090565b5b808211156125005760008160009055506001016124e8565b5090565b600061251761251284612d98565b612d73565b9050828152602081018484840111156125335761253261302d565b5b61253e848285612ebd565b509392505050565b600081359050612555816130c5565b92915050565b60008151905061256a816130c5565b92915050565b600082601f8301126125855761258461301e565b5b8135612595848260208601612504565b91505092915050565b600060a082840312156125b4576125b3613023565b5b6125be60a0612d73565b9050600082013567ffffffffffffffff8111156125de576125dd613028565b5b6125ea84828501612570565b600083015250602082013567ffffffffffffffff81111561260e5761260d613028565b5b61261a84828501612570565b602083015250604082013567ffffffffffffffff81111561263e5761263d613028565b5b61264a84828501612570565b604083015250606061265e8482850161267e565b60608301525060806126728482850161267e565b60808301525092915050565b60008135905061268d816130dc565b92915050565b6000602082840312156126a9576126a8613037565b5b60006126b784828501612546565b91505092915050565b6000602082840312156126d6576126d5613037565b5b60006126e48482850161255b565b91505092915050565b6000806000806080858703121561270757612706613037565b5b600061271587828801612546565b945050602085013567ffffffffffffffff81111561273657612735613032565b5b61274287828801612570565b935050604085013567ffffffffffffffff81111561276357612762613032565b5b61276f8782880161259e565b92505060606127808782880161267e565b91505092959194509250565b600080604083850312156127a3576127a2613037565b5b60006127b185828601612546565b92505060206127c28582860161267e565b9150509250929050565b6000602082840312156127e2576127e1613037565b5b60006127f08482850161267e565b91505092915050565b600080604083850312156128105761280f613037565b5b600061281e8582860161267e565b925050602061282f8582860161267e565b9150509250929050565b60006128458383612b6c565b60208301905092915050565b61285a81612e75565b82525050565b61286981612e75565b82525050565b61287881612e63565b82525050565b61288781612e63565b82525050565b600061289882612dd9565b6128a28185612dfc565b93506128ad83612dc9565b8060005b838110156128de5781516128c58882612839565b97506128d083612def565b9250506001810190506128b1565b5085935050505092915050565b6128f481612e87565b82525050565b61290381612e87565b82525050565b600061291482612de4565b61291e8185612e0d565b935061292e818560208601612ecc565b6129378161303c565b840191505092915050565b600061294d82612de4565b6129578185612e1e565b9350612967818560208601612ecc565b6129708161303c565b840191505092915050565b6000612988601583612e1e565b91506129938261304d565b602082019050919050565b60006129ab602283612e1e565b91506129b682613076565b604082019050919050565b600060e08301600083015184820360008601526129de8282612909565b91505060208301516129f36020860182612b6c565b5060408301518482036040860152612a0b8282612a64565b9150506060830151612a20606086018261286f565b506080830151612a336080860182612851565b5060a0830151612a4660a08601826128eb565b5060c0830151612a5960c08601826128eb565b508091505092915050565b600060a0830160008301518482036000860152612a818282612909565b91505060208301518482036020860152612a9b8282612909565b91505060408301518482036040860152612ab58282612909565b9150506060830151612aca6060860182612b6c565b506080830151612add6080860182612b6c565b508091505092915050565b600060a0830160008301518482036000860152612b058282612909565b91505060208301518482036020860152612b1f8282612909565b91505060408301518482036040860152612b398282612909565b9150506060830151612b4e6060860182612b6c565b506080830151612b616080860182612b6c565b508091505092915050565b612b7581612eb3565b82525050565b612b8481612eb3565b82525050565b6000604082019050612b9f6000830185612860565b612bac6020830184612b7b565b9392505050565b6000606082019050612bc8600083018661287e565b612bd5602083018561287e565b612be26040830184612b7b565b949350505050565b6000604082019050612bff600083018561287e565b612c0c6020830184612b7b565b9392505050565b60006020820190508181036000830152612c2d818461288d565b905092915050565b6000602082019050612c4a60008301846128fa565b92915050565b600060e0820190508181036000830152612c6a818a612942565b9050612c796020830189612b7b565b8181036040830152612c8b8188612ae8565b9050612c9a606083018761287e565b612ca76080830186612860565b612cb460a08301856128fa565b612cc160c08301846128fa565b98975050505050505050565b60006020820190508181036000830152612ce68161297b565b9050919050565b60006020820190508181036000830152612d068161299e565b9050919050565b60006020820190508181036000830152612d2781846129c1565b905092915050565b6000602082019050612d446000830184612b7b565b92915050565b6000604082019050612d5f6000830185612b7b565b612d6c602083018461287e565b9392505050565b6000612d7d612d8e565b9050612d898282612f31565b919050565b6000604051905090565b600067ffffffffffffffff821115612db357612db2612fef565b5b612dbc8261303c565b9050602081019050919050565b6000819050602082019050919050565b600081519050919050565b600081519050919050565b6000602082019050919050565b600082825260208201905092915050565b600082825260208201905092915050565b600082825260208201905092915050565b6000612e3a82612eb3565b9150612e4583612eb3565b925082821015612e5857612e57612f62565b5b828203905092915050565b6000612e6e82612e93565b9050919050565b6000612e8082612e93565b9050919050565b60008115159050919050565b600073ffffffffffffffffffffffffffffffffffffffff82169050919050565b6000819050919050565b82818337600083830152505050565b60005b83811015612eea578082015181840152602081019050612ecf565b83811115612ef9576000848401525b50505050565b60006002820490506001821680612f1757607f821691505b60208210811415612f2b57612f2a612f91565b5b50919050565b612f3a8261303c565b810181811067ffffffffffffffff82111715612f5957612f58612fef565b5b80604052505050565b7f4e487b7100000000000000000000000000000000000000000000000000000000600052601160045260246000fd5b7f4e487b7100000000000000000000000000000000000000000000000000000000600052602260045260246000fd5b7f4e487b7100000000000000000000000000000000000000000000000000000000600052603260045260246000fd5b7f4e487b7100000000000000000000000000000000000000000000000000000000600052604160045260246000fd5b600080fd5b600080fd5b600080fd5b600080fd5b600080fd5b600080fd5b6000601f19601f8301169050919050565b7f596f7520617265206e6f7420746865206f776e65720000000000000000000000600082015250565b7f5468697320636f6e747261637420646f65736e2774206f776e2074686973204e60008201527f4654000000000000000000000000000000000000000000000000000000000000602082015250565b6130ce81612e63565b81146130d957600080fd5b50565b6130e581612eb3565b81146130f057600080fd5b5056fea2646970667358221220afe82aa8109ff5903d2776fea283af3fe46070a851362e2096dcc42748d7f33064736f6c63430008060033",
  "immutableReferences": {},
  "source": "pragma solidity ^0.8.0;\r\n\r\nimport \"./NFT.sol\";\r\n\r\ncontract AuctionHouse{\r\n\r\n    //CONTRACT FIELDS\r\n\r\n    //array of all the auctions\r\n    Auction[] public auctions;\r\n\r\n    //map that contains every bid of a certain auction\r\n    mapping(uint256 => Bid[]) public auctionBids;\r\n\r\n    //for a given owner it returns a list of his auctions\r\n    mapping(address => uint256[]) public auctionOwner;\r\n\r\n    //Just the basic structure of a bid\r\n    struct Bid{\r\n        address payable from;\r\n        uint256 amount;\r\n    }\r\n    //optimize slots\r\n    struct Auction{\r\n        string name;\r\n        uint256 startPrice;\r\n        NFT.Item nft;\r\n        address nftRepositoryAddress;\r\n        address payable owner;\r\n        bool active;\r\n        bool finalized;\r\n    }\r\n    //----------------------------MODIFIERS-------------------------------------\r\n\r\n    //Guarantees that msg.sender is the owner of an auction\r\n    modifier onlyOwner(uint _auctionId){\r\n        require(auctions[_auctionId].owner == msg.sender, \"You are not the owner\");\r\n        _;\r\n    }\r\n\r\n    //Guarantees that this contract is owner of the given nft\r\n    //_nftAddress \r\n    modifier contractIsNFTOwner(address _nftAddress, NFT.Item memory _nft){\r\n        address nftOwner = NFT(_nftAddress).ownerOf(_nft.Id);\r\n        require(nftOwner == address(this), \"This contract doesn't own this NFT\");\r\n        _;\r\n    }\r\n\r\n    fallback() external{\r\n        revert();\r\n    }\r\n\r\n    //----------------------------FUNCTIONS-------------------------------------\r\n\r\n    //returns the number of overall auctions\r\n    function getCount() public view returns(uint){\r\n        return auctions.length;\r\n    }\r\n\r\n    //for a given auction returns the number of bids \r\n    function getBidsCount(uint _auctionId) public view returns(uint){\r\n        return auctionBids[_auctionId].length;\r\n    }\r\n    \r\n    //for a given owner returns an array of owned auctions\r\n    function getAuctionsOf(address _owner) public view returns(uint[] memory){\r\n        uint[] memory owned = auctionOwner[_owner];\r\n        return owned;\r\n    }\r\n\r\n    //for a given auctionId returns the current bid\r\n    function getCurrentBid(uint _auctionId) public view returns(uint256, address){\r\n        uint bidsLen = auctionBids[_auctionId].length;\r\n\r\n        if(bidsLen > 0){\r\n            Bid memory lastBid = auctionBids[_auctionId][bidsLen-1];\r\n            return(lastBid.amount, lastBid.from);\r\n        }\r\n        //if you don't find anything just return 0's\r\n        return(uint256(0), address(0));\r\n    }\r\n\r\n\r\n    //number of auctions that the owner owns\r\n    function getAuctionsCountOfOwner(address _owner) public view returns(uint){\r\n        return auctionOwner[_owner].length;\r\n    }\r\n\r\n    function getAuctionById(uint _auctionId) public view returns(Auction memory){\r\n        return auctions[_auctionId];\r\n    }\r\n\r\n\r\n    /*\r\n    For the given info creates an auction and adds it to the collections\r\n    but only if the contract is the owner of the nft\r\n    returns a boolean value so the dev could see whether the auction is created\r\n    */\r\n    function createAuction(address _nftRepositoryAddress, string memory _auctionTitle, NFT.Item memory _nft, uint256 _startPrice)\r\n    public contractIsNFTOwner(_nftRepositoryAddress, _nft) returns(bool){\r\n        uint auctionId = auctions.length;\r\n        Auction memory newAuc;\r\n        newAuc.name = _auctionTitle;\r\n        newAuc.startPrice = _startPrice;\r\n        newAuc.nft = _nft;\r\n        newAuc.nftRepositoryAddress = _nftRepositoryAddress;\r\n        newAuc.owner = payable(msg.sender);\r\n        newAuc.active = true;\r\n        newAuc.finalized = false;\r\n\r\n        auctions.push(newAuc);\r\n        auctionOwner[msg.sender].push(auctionId);\r\n\r\n        emit CreatedAuction(msg.sender, auctionId);\r\n        return true;\r\n    } \r\n\r\n    //approves the transaction and transferes the nft\r\n    function approveAndTransfer(address _from, address _to, address _nftRepositoryAddress, uint256 _nftId) internal returns(bool){\r\n        NFT remoteContract = NFT(_nftRepositoryAddress);\r\n        remoteContract.approve(_to, _nftId);\r\n        remoteContract.transferFrom(_from, _to, _nftId);\r\n        return true;\r\n    }\r\n\r\n    /*\r\n    the owner cancels his ongoing auction\r\n    nft is transfered back to the owner from the contract\r\n    the winning bidder get his refund\r\n    */\r\n    function cancelAuction(uint _auctionId) public onlyOwner(_auctionId){\r\n        Auction memory myAuction = auctions[_auctionId];\r\n        uint bidsLen = auctionBids[_auctionId].length;\r\n\r\n        if(bidsLen > 0){\r\n            Bid memory lastBid = auctionBids[_auctionId][bidsLen-1];\r\n            if(!lastBid.from.send(lastBid.amount)){\r\n                revert();\r\n            }\r\n        }\r\n\r\n        //approve and transfer the transaction from this contract to the auction owner\r\n        if(approveAndTransfer(address(this), myAuction.owner, myAuction.nftRepositoryAddress, myAuction.nft.Id)){\r\n            auctions[_auctionId].active = false;\r\n            emit CanceledAuction(msg.sender, _auctionId);\r\n        }\r\n    }\r\n\r\n    //Behaves on the certain status of the auction\r\n    function finalizeAuction(uint _auctionId) public{\r\n        Auction memory myAuction = auctions[_auctionId];\r\n        uint bidsLen = auctionBids[_auctionId].length;\r\n\r\n        //if there are no bids it cancels the auction\r\n        if(bidsLen == 0){\r\n            cancelAuction(_auctionId);\r\n        }\r\n        else{// the money goes to the owner and the nft goes to the winner\r\n            Bid memory lastBid = auctionBids[_auctionId][bidsLen - 1];\r\n\r\n            if(!myAuction.owner.send(lastBid.amount)){\r\n                revert();\r\n            }\r\n\r\n            if(approveAndTransfer(address(this), lastBid.from, myAuction.nftRepositoryAddress, myAuction.nft.Id)){\r\n                auctions[_auctionId].active = false;\r\n                auctions[_auctionId].finalized = true;\r\n                emit FinalizedAuction(msg.sender, _auctionId);\r\n            }\r\n        }\r\n    }\r\n\r\n    function bidOnAuction(uint _auctionId) external payable {\r\n        uint ethSent = msg.value;\r\n        Auction memory myAuction = auctions[_auctionId];\r\n\r\n        //owner can't bid on his own auctions\r\n        if(myAuction.owner == msg.sender) revert();\r\n\r\n        uint bidsLen = auctionBids[_auctionId].length;\r\n        uint256 tmpAmount = myAuction.startPrice;\r\n        Bid memory lastBid;\r\n\r\n        //checking if there are any bids\r\n        if(bidsLen > 0){\r\n            lastBid = auctionBids[_auctionId][bidsLen - 1];\r\n            tmpAmount = lastBid.amount;\r\n        }\r\n\r\n        //the amount sent has to be greater than the last bid\r\n        if(ethSent < tmpAmount) revert();\r\n\r\n        //if everything passed we refund the last bidder\r\n        if(bidsLen > 0){\r\n            if(!lastBid.from.send(lastBid.amount)){\r\n                revert();\r\n            }\r\n        }\r\n\r\n        //and then insert the new bid\r\n        Bid memory newBid;\r\n        newBid.from = payable(msg.sender);\r\n        newBid.amount = ethSent;\r\n        auctionBids[_auctionId].push(newBid);\r\n\r\n        emit SuccessfulBid(msg.sender, _auctionId);\r\n\r\n    }\r\n\r\n    //----------------------------EVENTS-------------------------------------\r\n\r\n    event SuccessfulBid(address _from, uint _auctionId);\r\n\r\n    event CreatedAuction(address _owner, uint _auctionId);\r\n\r\n    event CanceledAuction(address _owner, uint _auctionId);\r\n\r\n    event FinalizedAuction(address _owner, uint _auctionId);\r\n\r\n}",
  "sourcePath": "D:/nft/src/contracts/AuctionHouse.sol",
  "compiler": {
    "name": "solc",
    "version": "0.8.6+commit.11564f7e.Emscripten.clang"
  },
  "schemaVersion": "3.4.1",
  "updatedAt": "2021-07-11T15:34:54.130Z",
  "networkType": "ethereum",
  "devdoc": {
    "kind": "dev",
    "methods": {},
    "version": 1
  },
  "userdoc": {
    "kind": "user",
    "methods": {},
    "version": 1
  }
}