{
  "contractName": "AuctionHouse",
  "abi": [
    {
      "anonymous": false,
      "inputs": [
        {
          "indexed": false,
          "internalType": "address",
          "name": "_owner",
          "type": "address"
        },
        {
          "indexed": false,
          "internalType": "uint256",
          "name": "_auctionId",
          "type": "uint256"
        }
      ],
      "name": "CanceledAuction",
      "type": "event"
    },
    {
      "anonymous": false,
      "inputs": [
        {
          "indexed": false,
          "internalType": "address",
          "name": "_owner",
          "type": "address"
        },
        {
          "indexed": false,
          "internalType": "uint256",
          "name": "_auctionId",
          "type": "uint256"
        }
      ],
      "name": "CreatedAuction",
      "type": "event"
    },
    {
      "anonymous": false,
      "inputs": [
        {
          "indexed": false,
          "internalType": "address",
          "name": "_owner",
          "type": "address"
        },
        {
          "indexed": false,
          "internalType": "uint256",
          "name": "_auctionId",
          "type": "uint256"
        }
      ],
      "name": "FinalizedAuction",
      "type": "event"
    },
    {
      "anonymous": false,
      "inputs": [
        {
          "indexed": false,
          "internalType": "address",
          "name": "_from",
          "type": "address"
        },
        {
          "indexed": false,
          "internalType": "uint256",
          "name": "_auctionId",
          "type": "uint256"
        }
      ],
      "name": "SuccessfulBid",
      "type": "event"
    },
    {
      "stateMutability": "nonpayable",
      "type": "fallback"
    },
    {
      "inputs": [
        {
          "internalType": "uint256",
          "name": "",
          "type": "uint256"
        },
        {
          "internalType": "uint256",
          "name": "",
          "type": "uint256"
        }
      ],
      "name": "auctionBids",
      "outputs": [
        {
          "internalType": "address payable",
          "name": "from",
          "type": "address"
        },
        {
          "internalType": "uint256",
          "name": "amount",
          "type": "uint256"
        }
      ],
      "stateMutability": "view",
      "type": "function",
      "constant": true
    },
    {
      "inputs": [
        {
          "internalType": "address",
          "name": "",
          "type": "address"
        },
        {
          "internalType": "uint256",
          "name": "",
          "type": "uint256"
        }
      ],
      "name": "auctionOwner",
      "outputs": [
        {
          "internalType": "uint256",
          "name": "",
          "type": "uint256"
        }
      ],
      "stateMutability": "view",
      "type": "function",
      "constant": true
    },
    {
      "inputs": [
        {
          "internalType": "uint256",
          "name": "",
          "type": "uint256"
        }
      ],
      "name": "auctions",
      "outputs": [
        {
          "internalType": "string",
          "name": "name",
          "type": "string"
        },
        {
          "internalType": "uint256",
          "name": "blockDeadline",
          "type": "uint256"
        },
        {
          "internalType": "uint256",
          "name": "startPrice",
          "type": "uint256"
        },
        {
          "internalType": "string",
          "name": "metadata",
          "type": "string"
        },
        {
          "internalType": "uint256",
          "name": "nftId",
          "type": "uint256"
        },
        {
          "internalType": "address",
          "name": "nftRepositoryAddress",
          "type": "address"
        },
        {
          "internalType": "address payable",
          "name": "owner",
          "type": "address"
        },
        {
          "internalType": "bool",
          "name": "active",
          "type": "bool"
        },
        {
          "internalType": "bool",
          "name": "finalized",
          "type": "bool"
        }
      ],
      "stateMutability": "view",
      "type": "function",
      "constant": true
    },
    {
      "inputs": [],
      "name": "getCount",
      "outputs": [
        {
          "internalType": "uint256",
          "name": "",
          "type": "uint256"
        }
      ],
      "stateMutability": "view",
      "type": "function",
      "constant": true
    },
    {
      "inputs": [
        {
          "internalType": "uint256",
          "name": "_auctionId",
          "type": "uint256"
        }
      ],
      "name": "getBidsCount",
      "outputs": [
        {
          "internalType": "uint256",
          "name": "",
          "type": "uint256"
        }
      ],
      "stateMutability": "view",
      "type": "function",
      "constant": true
    },
    {
      "inputs": [
        {
          "internalType": "address",
          "name": "_owner",
          "type": "address"
        }
      ],
      "name": "getAuctionsOf",
      "outputs": [
        {
          "internalType": "uint256[]",
          "name": "",
          "type": "uint256[]"
        }
      ],
      "stateMutability": "view",
      "type": "function",
      "constant": true
    },
    {
      "inputs": [
        {
          "internalType": "uint256",
          "name": "_auctionId",
          "type": "uint256"
        }
      ],
      "name": "getCurrentBid",
      "outputs": [
        {
          "internalType": "uint256",
          "name": "",
          "type": "uint256"
        },
        {
          "internalType": "address",
          "name": "",
          "type": "address"
        }
      ],
      "stateMutability": "view",
      "type": "function",
      "constant": true
    },
    {
      "inputs": [
        {
          "internalType": "address",
          "name": "_owner",
          "type": "address"
        }
      ],
      "name": "getAuctionsCountOfOwner",
      "outputs": [
        {
          "internalType": "uint256",
          "name": "",
          "type": "uint256"
        }
      ],
      "stateMutability": "view",
      "type": "function",
      "constant": true
    },
    {
      "inputs": [
        {
          "internalType": "uint256",
          "name": "_auctionId",
          "type": "uint256"
        }
      ],
      "name": "getAuctionById",
      "outputs": [
        {
          "components": [
            {
              "internalType": "string",
              "name": "name",
              "type": "string"
            },
            {
              "internalType": "uint256",
              "name": "blockDeadline",
              "type": "uint256"
            },
            {
              "internalType": "uint256",
              "name": "startPrice",
              "type": "uint256"
            },
            {
              "internalType": "string",
              "name": "metadata",
              "type": "string"
            },
            {
              "internalType": "uint256",
              "name": "nftId",
              "type": "uint256"
            },
            {
              "internalType": "address",
              "name": "nftRepositoryAddress",
              "type": "address"
            },
            {
              "internalType": "address payable",
              "name": "owner",
              "type": "address"
            },
            {
              "internalType": "bool",
              "name": "active",
              "type": "bool"
            },
            {
              "internalType": "bool",
              "name": "finalized",
              "type": "bool"
            }
          ],
          "internalType": "struct AuctionHouse.Auction",
          "name": "",
          "type": "tuple"
        }
      ],
      "stateMutability": "view",
      "type": "function",
      "constant": true
    },
    {
      "inputs": [
        {
          "internalType": "address",
          "name": "_nftRepositoryAddress",
          "type": "address"
        },
        {
          "internalType": "uint256",
          "name": "_nftId",
          "type": "uint256"
        },
        {
          "internalType": "string",
          "name": "_auctionTitle",
          "type": "string"
        },
        {
          "internalType": "string",
          "name": "_metadata",
          "type": "string"
        },
        {
          "internalType": "uint256",
          "name": "_startPrice",
          "type": "uint256"
        },
        {
          "internalType": "uint256",
          "name": "_blockDeadline",
          "type": "uint256"
        }
      ],
      "name": "createAuction",
      "outputs": [
        {
          "internalType": "bool",
          "name": "",
          "type": "bool"
        }
      ],
      "stateMutability": "nonpayable",
      "type": "function"
    },
    {
      "inputs": [
        {
          "internalType": "uint256",
          "name": "_auctionId",
          "type": "uint256"
        }
      ],
      "name": "cancelAuction",
      "outputs": [],
      "stateMutability": "nonpayable",
      "type": "function"
    },
    {
      "inputs": [
        {
          "internalType": "uint256",
          "name": "_auctionId",
          "type": "uint256"
        }
      ],
      "name": "finalizeAuction",
      "outputs": [],
      "stateMutability": "nonpayable",
      "type": "function"
    },
    {
      "inputs": [
        {
          "internalType": "uint256",
          "name": "_auctionId",
          "type": "uint256"
        }
      ],
      "name": "bidOnAuction",
      "outputs": [],
      "stateMutability": "payable",
      "type": "function",
      "payable": true
    }
  ],
  "bytecode": "0x608060405234801561001057600080fd5b5061294d806100206000396000f3fe6080604052600436106100c65760003560e01c8063a87d942c1161007f578063d56aa55811610059578063d56aa558146102c0578063da4e364f146102fd578063e1b965811461033b578063e808386314610378576100c7565b8063a87d942c1461021b578063b1b61bfa14610246578063c8756cda14610283576100c7565b806318111ada146100d957806326b7aeea146101165780634008f9c014610132578063571a26a01461016f5780635f93de49146101b457806396b5a755146101f2576100c7565b5b3480156100d357600080fd5b50600080fd5b3480156100e557600080fd5b5061010060048036038101906100fb91906120bb565b6103a1565b60405161010d919061253b565b60405180910390f35b610130600480360381019061012b91906120bb565b610602565b005b34801561013e57600080fd5b50610159600480360381019061015491906120bb565b610b0c565b604051610166919061255d565b60405180910390f35b34801561017b57600080fd5b50610196600480360381019061019191906120bb565b610b2c565b6040516101ab99989796959493929190612460565b60405180910390f35b3480156101c057600080fd5b506101db60048036038101906101d691906120e8565b610cf4565b6040516101e992919061239a565b60405180910390f35b3480156101fe57600080fd5b50610219600480360381019061021491906120bb565b610d55565b005b34801561022757600080fd5b50610230611212565b60405161023d919061255d565b60405180910390f35b34801561025257600080fd5b5061026d60048036038101906102689190611f5c565b61121e565b60405161027a9190612423565b60405180910390f35b34801561028f57600080fd5b506102aa60048036038101906102a59190611fb6565b6112bb565b6040516102b7919061255d565b60405180910390f35b3480156102cc57600080fd5b506102e760048036038101906102e29190611f5c565b6112ec565b6040516102f4919061255d565b60405180910390f35b34801561030957600080fd5b50610324600480360381019061031f91906120bb565b611338565b604051610332929190612578565b60405180910390f35b34801561034757600080fd5b50610362600480360381019061035d9190611ff6565b611430565b60405161036f9190612445565b60405180910390f35b34801561038457600080fd5b5061039f600480360381019061039a91906120bb565b61180a565b005b6103a9611d5e565b600082815481106103bd576103bc6127ee565b5b9060005260206000209060070201604051806101200160405290816000820180546103e79061272d565b80601f01602080910402602001604051908101604052809291908181526020018280546104139061272d565b80156104605780601f1061043557610100808354040283529160200191610460565b820191906000526020600020905b81548152906001019060200180831161044357829003601f168201915b50505050508152602001600182015481526020016002820154815260200160038201805461048d9061272d565b80601f01602080910402602001604051908101604052809291908181526020018280546104b99061272d565b80156105065780601f106104db57610100808354040283529160200191610506565b820191906000526020600020905b8154815290600101906020018083116104e957829003601f168201915b50505050508152602001600482015481526020016005820160009054906101000a900473ffffffffffffffffffffffffffffffffffffffff1673ffffffffffffffffffffffffffffffffffffffff1673ffffffffffffffffffffffffffffffffffffffff1681526020016006820160009054906101000a900473ffffffffffffffffffffffffffffffffffffffff1673ffffffffffffffffffffffffffffffffffffffff1673ffffffffffffffffffffffffffffffffffffffff1681526020016006820160149054906101000a900460ff161515151581526020016006820160159054906101000a900460ff1615151515815250509050919050565b6000349050600080838154811061061c5761061b6127ee565b5b9060005260206000209060070201604051806101200160405290816000820180546106469061272d565b80601f01602080910402602001604051908101604052809291908181526020018280546106729061272d565b80156106bf5780601f10610694576101008083540402835291602001916106bf565b820191906000526020600020905b8154815290600101906020018083116106a257829003601f168201915b5050505050815260200160018201548152602001600282015481526020016003820180546106ec9061272d565b80601f01602080910402602001604051908101604052809291908181526020018280546107189061272d565b80156107655780601f1061073a57610100808354040283529160200191610765565b820191906000526020600020905b81548152906001019060200180831161074857829003601f168201915b50505050508152602001600482015481526020016005820160009054906101000a900473ffffffffffffffffffffffffffffffffffffffff1673ffffffffffffffffffffffffffffffffffffffff1673ffffffffffffffffffffffffffffffffffffffff1681526020016006820160009054906101000a900473ffffffffffffffffffffffffffffffffffffffff1673ffffffffffffffffffffffffffffffffffffffff1673ffffffffffffffffffffffffffffffffffffffff1681526020016006820160149054906101000a900460ff161515151581526020016006820160159054906101000a900460ff16151515158152505090503373ffffffffffffffffffffffffffffffffffffffff168160c0015173ffffffffffffffffffffffffffffffffffffffff16141561089957600080fd5b80602001514211156108aa57600080fd5b6000600160008581526020019081526020016000208054905090506000826040015190506108d6611dda565b600083111561099357600160008781526020019081526020016000206001846108ff919061265d565b815481106109105761090f6127ee565b5b90600052602060002090600202016040518060400160405290816000820160009054906101000a900473ffffffffffffffffffffffffffffffffffffffff1673ffffffffffffffffffffffffffffffffffffffff1673ffffffffffffffffffffffffffffffffffffffff1681526020016001820154815250509050806020015191505b818510156109a057600080fd5b60008311156109f057806000015173ffffffffffffffffffffffffffffffffffffffff166108fc82602001519081150290604051600060405180830381858888f193505050506109ef57600080fd5b5b6109f8611dda565b33816000019073ffffffffffffffffffffffffffffffffffffffff16908173ffffffffffffffffffffffffffffffffffffffff1681525050858160200181815250506001600088815260200190815260200160002081908060018154018082558091505060019003906000526020600020906002020160009091909190915060008201518160000160006101000a81548173ffffffffffffffffffffffffffffffffffffffff021916908373ffffffffffffffffffffffffffffffffffffffff1602179055506020820151816001015550507f692ceecced930663a40b6237c0bb4e50098df155cd6ba66a32667f836baed2183388604051610afb9291906123fa565b60405180910390a150505050505050565b600060016000838152602001908152602001600020805490509050919050565b60008181548110610b3c57600080fd5b9060005260206000209060070201600091509050806000018054610b5f9061272d565b80601f0160208091040260200160405190810160405280929190818152602001828054610b8b9061272d565b8015610bd85780601f10610bad57610100808354040283529160200191610bd8565b820191906000526020600020905b815481529060010190602001808311610bbb57829003601f168201915b505050505090806001015490806002015490806003018054610bf99061272d565b80601f0160208091040260200160405190810160405280929190818152602001828054610c259061272d565b8015610c725780601f10610c4757610100808354040283529160200191610c72565b820191906000526020600020905b815481529060010190602001808311610c5557829003601f168201915b5050505050908060040154908060050160009054906101000a900473ffffffffffffffffffffffffffffffffffffffff16908060060160009054906101000a900473ffffffffffffffffffffffffffffffffffffffff16908060060160149054906101000a900460ff16908060060160159054906101000a900460ff16905089565b60016020528160005260406000208181548110610d1057600080fd5b9060005260206000209060020201600091509150508060000160009054906101000a900473ffffffffffffffffffffffffffffffffffffffff16908060010154905082565b803373ffffffffffffffffffffffffffffffffffffffff1660008281548110610d8157610d806127ee565b5b906000526020600020906007020160060160009054906101000a900473ffffffffffffffffffffffffffffffffffffffff1673ffffffffffffffffffffffffffffffffffffffff1614610e09576040517f08c379a0000000000000000000000000000000000000000000000000000000008152600401610e00906124fb565b60405180910390fd5b6000808381548110610e1e57610e1d6127ee565b5b906000526020600020906007020160405180610120016040529081600082018054610e489061272d565b80601f0160208091040260200160405190810160405280929190818152602001828054610e749061272d565b8015610ec15780601f10610e9657610100808354040283529160200191610ec1565b820191906000526020600020905b815481529060010190602001808311610ea457829003601f168201915b505050505081526020016001820154815260200160028201548152602001600382018054610eee9061272d565b80601f0160208091040260200160405190810160405280929190818152602001828054610f1a9061272d565b8015610f675780601f10610f3c57610100808354040283529160200191610f67565b820191906000526020600020905b815481529060010190602001808311610f4a57829003601f168201915b50505050508152602001600482015481526020016005820160009054906101000a900473ffffffffffffffffffffffffffffffffffffffff1673ffffffffffffffffffffffffffffffffffffffff1673ffffffffffffffffffffffffffffffffffffffff1681526020016006820160009054906101000a900473ffffffffffffffffffffffffffffffffffffffff1673ffffffffffffffffffffffffffffffffffffffff1673ffffffffffffffffffffffffffffffffffffffff1681526020016006820160149054906101000a900460ff161515151581526020016006820160159054906101000a900460ff16151515158152505090506000600160008581526020019081526020016000208054905090506000811115611178576000600160008681526020019081526020016000206001836110a4919061265d565b815481106110b5576110b46127ee565b5b90600052602060002090600202016040518060400160405290816000820160009054906101000a900473ffffffffffffffffffffffffffffffffffffffff1673ffffffffffffffffffffffffffffffffffffffff1673ffffffffffffffffffffffffffffffffffffffff1681526020016001820154815250509050806000015173ffffffffffffffffffffffffffffffffffffffff166108fc82602001519081150290604051600060405180830381858888f1935050505061117657600080fd5b505b611190308360c001518460a001518560800151611c6f565b1561120c5760008085815481106111aa576111a96127ee565b5b906000526020600020906007020160060160146101000a81548160ff0219169083151502179055507f7ae0b2dad8211114d3703f3eae564996deaa436d58d3860aff659ddc284b58ec33856040516112039291906123fa565b60405180910390a15b50505050565b60008080549050905090565b60606000600260008473ffffffffffffffffffffffffffffffffffffffff1673ffffffffffffffffffffffffffffffffffffffff1681526020019081526020016000208054806020026020016040519081016040528092919081815260200182805480156112ab57602002820191906000526020600020905b815481526020019060010190808311611297575b5050505050905080915050919050565b600260205281600052604060002081815481106112d757600080fd5b90600052602060002001600091509150505481565b6000600260008373ffffffffffffffffffffffffffffffffffffffff1673ffffffffffffffffffffffffffffffffffffffff168152602001908152602001600020805490509050919050565b600080600060016000858152602001908152602001600020805490509050600081111561142257600060016000868152602001908152602001600020600183611381919061265d565b81548110611392576113916127ee565b5b90600052602060002090600202016040518060400160405290816000820160009054906101000a900473ffffffffffffffffffffffffffffffffffffffff1673ffffffffffffffffffffffffffffffffffffffff1673ffffffffffffffffffffffffffffffffffffffff16815260200160018201548152505090508060200151816000015193509350505061142b565b60008092509250505b915091565b6000868660008273ffffffffffffffffffffffffffffffffffffffff16636352211e836040518263ffffffff1660e01b815260040161146f919061255d565b60206040518083038186803b15801561148757600080fd5b505afa15801561149b573d6000803e3d6000fd5b505050506040513d601f19601f820116820180604052508101906114bf9190611f89565b90503073ffffffffffffffffffffffffffffffffffffffff168173ffffffffffffffffffffffffffffffffffffffff161461152f576040517f08c379a00000000000000000000000000000000000000000000000000000000081526004016115269061251b565b60405180910390fd5b600080805490509050611540611d5e565b89816000018190525086816020018181525050878160400181815250508881606001819052508a8160800181815250508b8160a0019073ffffffffffffffffffffffffffffffffffffffff16908173ffffffffffffffffffffffffffffffffffffffff1681525050338160c0019073ffffffffffffffffffffffffffffffffffffffff16908173ffffffffffffffffffffffffffffffffffffffff168152505060018160e00190151590811515815250506000816101000190151590811515815250506000819080600181540180825580915050600190039060005260206000209060070201600090919091909150600082015181600001908051906020019061164b929190611e0a565b506020820151816001015560408201518160020155606082015181600301908051906020019061167c929190611e0a565b506080820151816004015560a08201518160050160006101000a81548173ffffffffffffffffffffffffffffffffffffffff021916908373ffffffffffffffffffffffffffffffffffffffff16021790555060c08201518160060160006101000a81548173ffffffffffffffffffffffffffffffffffffffff021916908373ffffffffffffffffffffffffffffffffffffffff16021790555060e08201518160060160146101000a81548160ff0219169083151502179055506101008201518160060160156101000a81548160ff0219169083151502179055505050600260003373ffffffffffffffffffffffffffffffffffffffff1673ffffffffffffffffffffffffffffffffffffffff1681526020019081526020016000208290806001815401808255809150506001900390600052602060002001600090919091909150557fcf8446482135407f31d60f0c9ef9f194cc148cdeeecddf7a034b2ccd202f1fa933836040516117ef9291906123fa565b60405180910390a16001955050505050509695505050505050565b600080828154811061181f5761181e6127ee565b5b9060005260206000209060070201604051806101200160405290816000820180546118499061272d565b80601f01602080910402602001604051908101604052809291908181526020018280546118759061272d565b80156118c25780601f10611897576101008083540402835291602001916118c2565b820191906000526020600020905b8154815290600101906020018083116118a557829003601f168201915b5050505050815260200160018201548152602001600282015481526020016003820180546118ef9061272d565b80601f016020809104026020016040519081016040528092919081815260200182805461191b9061272d565b80156119685780601f1061193d57610100808354040283529160200191611968565b820191906000526020600020905b81548152906001019060200180831161194b57829003601f168201915b50505050508152602001600482015481526020016005820160009054906101000a900473ffffffffffffffffffffffffffffffffffffffff1673ffffffffffffffffffffffffffffffffffffffff1673ffffffffffffffffffffffffffffffffffffffff1681526020016006820160009054906101000a900473ffffffffffffffffffffffffffffffffffffffff1673ffffffffffffffffffffffffffffffffffffffff1673ffffffffffffffffffffffffffffffffffffffff1681526020016006820160149054906101000a900460ff161515151581526020016006820160159054906101000a900460ff16151515158152505090506000600160008481526020019081526020016000208054905090508160200151421015611a8b57600080fd5b6000811415611aa257611a9d83610d55565b611c6a565b600060016000858152602001908152602001600020600183611ac4919061265d565b81548110611ad557611ad46127ee565b5b90600052602060002090600202016040518060400160405290816000820160009054906101000a900473ffffffffffffffffffffffffffffffffffffffff1673ffffffffffffffffffffffffffffffffffffffff1673ffffffffffffffffffffffffffffffffffffffff16815260200160018201548152505090508260c0015173ffffffffffffffffffffffffffffffffffffffff166108fc82602001519081150290604051600060405180830381858888f19350505050611b9657600080fd5b611bae3082600001518560a001518660800151611c6f565b15611c68576000808581548110611bc857611bc76127ee565b5b906000526020600020906007020160060160146101000a81548160ff021916908315150217905550600160008581548110611c0657611c056127ee565b5b906000526020600020906007020160060160156101000a81548160ff0219169083151502179055507fb37c6facc72978f5c24f828700b3f6470d8a0ef17315bb4e4c47852cb229e73f3385604051611c5f9291906123fa565b60405180910390a15b505b505050565b6000808390508073ffffffffffffffffffffffffffffffffffffffff1663095ea7b386856040518363ffffffff1660e01b8152600401611cb09291906123fa565b600060405180830381600087803b158015611cca57600080fd5b505af1158015611cde573d6000803e3d6000fd5b505050508073ffffffffffffffffffffffffffffffffffffffff166323b872dd8787866040518463ffffffff1660e01b8152600401611d1f939291906123c3565b600060405180830381600087803b158015611d3957600080fd5b505af1158015611d4d573d6000803e3d6000fd5b505050506001915050949350505050565b6040518061012001604052806060815260200160008152602001600081526020016060815260200160008152602001600073ffffffffffffffffffffffffffffffffffffffff168152602001600073ffffffffffffffffffffffffffffffffffffffff1681526020016000151581526020016000151581525090565b6040518060400160405280600073ffffffffffffffffffffffffffffffffffffffff168152602001600081525090565b828054611e169061272d565b90600052602060002090601f016020900481019282611e385760008555611e7f565b82601f10611e5157805160ff1916838001178555611e7f565b82800160010185558215611e7f579182015b82811115611e7e578251825591602001919060010190611e63565b5b509050611e8c9190611e90565b5090565b5b80821115611ea9576000816000905550600101611e91565b5090565b6000611ec0611ebb846125c6565b6125a1565b905082815260208101848484011115611edc57611edb612851565b5b611ee78482856126eb565b509392505050565b600081359050611efe816128e9565b92915050565b600081519050611f13816128e9565b92915050565b600082601f830112611f2e57611f2d61284c565b5b8135611f3e848260208601611ead565b91505092915050565b600081359050611f5681612900565b92915050565b600060208284031215611f7257611f7161285b565b5b6000611f8084828501611eef565b91505092915050565b600060208284031215611f9f57611f9e61285b565b5b6000611fad84828501611f04565b91505092915050565b60008060408385031215611fcd57611fcc61285b565b5b6000611fdb85828601611eef565b9250506020611fec85828601611f47565b9150509250929050565b60008060008060008060c087890312156120135761201261285b565b5b600061202189828a01611eef565b965050602061203289828a01611f47565b955050604087013567ffffffffffffffff81111561205357612052612856565b5b61205f89828a01611f19565b945050606087013567ffffffffffffffff8111156120805761207f612856565b5b61208c89828a01611f19565b935050608061209d89828a01611f47565b92505060a06120ae89828a01611f47565b9150509295509295509295565b6000602082840312156120d1576120d061285b565b5b60006120df84828501611f47565b91505092915050565b600080604083850312156120ff576120fe61285b565b5b600061210d85828601611f47565b925050602061211e85828601611f47565b9150509250929050565b6000612134838361237c565b60208301905092915050565b612149816126a3565b82525050565b612158816126a3565b82525050565b61216781612691565b82525050565b61217681612691565b82525050565b600061218782612607565b612191818561262a565b935061219c836125f7565b8060005b838110156121cd5781516121b48882612128565b97506121bf8361261d565b9250506001810190506121a0565b5085935050505092915050565b6121e3816126b5565b82525050565b6121f2816126b5565b82525050565b600061220382612612565b61220d818561263b565b935061221d8185602086016126fa565b61222681612860565b840191505092915050565b600061223c82612612565b612246818561264c565b93506122568185602086016126fa565b61225f81612860565b840191505092915050565b600061227760158361264c565b915061228282612871565b602082019050919050565b600061229a60228361264c565b91506122a58261289a565b604082019050919050565b60006101208301600083015184820360008601526122ce82826121f8565b91505060208301516122e3602086018261237c565b5060408301516122f6604086018261237c565b506060830151848203606086015261230e82826121f8565b9150506080830151612323608086018261237c565b5060a083015161233660a086018261215e565b5060c083015161234960c0860182612140565b5060e083015161235c60e08601826121da565b506101008301516123716101008601826121da565b508091505092915050565b612385816126e1565b82525050565b612394816126e1565b82525050565b60006040820190506123af600083018561214f565b6123bc602083018461238b565b9392505050565b60006060820190506123d8600083018661216d565b6123e5602083018561216d565b6123f2604083018461238b565b949350505050565b600060408201905061240f600083018561216d565b61241c602083018461238b565b9392505050565b6000602082019050818103600083015261243d818461217c565b905092915050565b600060208201905061245a60008301846121e9565b92915050565b600061012082019050818103600083015261247b818c612231565b905061248a602083018b61238b565b612497604083018a61238b565b81810360608301526124a98189612231565b90506124b8608083018861238b565b6124c560a083018761216d565b6124d260c083018661214f565b6124df60e08301856121e9565b6124ed6101008301846121e9565b9a9950505050505050505050565b600060208201905081810360008301526125148161226a565b9050919050565b600060208201905081810360008301526125348161228d565b9050919050565b6000602082019050818103600083015261255581846122b0565b905092915050565b6000602082019050612572600083018461238b565b92915050565b600060408201905061258d600083018561238b565b61259a602083018461216d565b9392505050565b60006125ab6125bc565b90506125b7828261275f565b919050565b6000604051905090565b600067ffffffffffffffff8211156125e1576125e061281d565b5b6125ea82612860565b9050602081019050919050565b6000819050602082019050919050565b600081519050919050565b600081519050919050565b6000602082019050919050565b600082825260208201905092915050565b600082825260208201905092915050565b600082825260208201905092915050565b6000612668826126e1565b9150612673836126e1565b92508282101561268657612685612790565b5b828203905092915050565b600061269c826126c1565b9050919050565b60006126ae826126c1565b9050919050565b60008115159050919050565b600073ffffffffffffffffffffffffffffffffffffffff82169050919050565b6000819050919050565b82818337600083830152505050565b60005b838110156127185780820151818401526020810190506126fd565b83811115612727576000848401525b50505050565b6000600282049050600182168061274557607f821691505b60208210811415612759576127586127bf565b5b50919050565b61276882612860565b810181811067ffffffffffffffff821117156127875761278661281d565b5b80604052505050565b7f4e487b7100000000000000000000000000000000000000000000000000000000600052601160045260246000fd5b7f4e487b7100000000000000000000000000000000000000000000000000000000600052602260045260246000fd5b7f4e487b7100000000000000000000000000000000000000000000000000000000600052603260045260246000fd5b7f4e487b7100000000000000000000000000000000000000000000000000000000600052604160045260246000fd5b600080fd5b600080fd5b600080fd5b600080fd5b6000601f19601f8301169050919050565b7f596f7520617265206e6f7420746865206f776e65720000000000000000000000600082015250565b7f5468697320636f6e747261637420646f65736e2774206f776e2074686973204e60008201527f4654000000000000000000000000000000000000000000000000000000000000602082015250565b6128f281612691565b81146128fd57600080fd5b50565b612909816126e1565b811461291457600080fd5b5056fea26469706673582212206358cdaf258dd1050d673bdb31eab7d6b472980be87e1f0bcfaa5d1246b4433764736f6c63430008060033",
  "immutableReferences": {},
  "source": "pragma solidity ^0.8.0;\r\n\r\nimport \"./NFT.sol\";\r\n\r\ncontract AuctionHouse{\r\n\r\n    //CONTRACT FIELDS\r\n\r\n    //array of all the auctions\r\n    Auction[] public auctions;\r\n\r\n    //map that contains every bid of a certain auction\r\n    mapping(uint256 => Bid[]) public auctionBids;\r\n\r\n    //for a given owner it returns a list of his auctions\r\n    mapping(address => uint256[]) public auctionOwner;\r\n\r\n    //Just the basic structure of a bid\r\n    struct Bid{\r\n        address payable from;\r\n        uint256 amount;\r\n    }\r\n    //optimize slots\r\n    struct Auction{\r\n        string name;\r\n        uint256 blockDeadline;\r\n        uint256 startPrice;\r\n        string metadata;//take out\r\n        uint256 nftId;\r\n        address nftRepositoryAddress;\r\n        address payable owner;\r\n        bool active;\r\n        bool finalized;\r\n    }\r\n    //----------------------------MODIFIERS-------------------------------------\r\n\r\n    //Guarantees that msg.sender is the owner of an auction\r\n    modifier onlyOwner(uint _auctionId){\r\n        require(auctions[_auctionId].owner == msg.sender, \"You are not the owner\");\r\n        _;\r\n    }\r\n\r\n    //Guarantees that this contract is owner of the given nft\r\n    //_nftAddress \r\n    modifier contractIsNFTOwner(address _nftAddress, uint256 _nftId){\r\n        address nftOwner = NFT(_nftAddress).ownerOf(_nftId);\r\n        require(nftOwner == address(this), \"This contract doesn't own this NFT\");\r\n        _;\r\n    }\r\n\r\n    fallback() external{\r\n        revert();\r\n    }\r\n\r\n    //----------------------------FUNCTIONS-------------------------------------\r\n\r\n    //returns the number of overall auctions\r\n    function getCount() public view returns(uint){\r\n        return auctions.length;\r\n    }\r\n\r\n    //for a given auction returns the number of bids \r\n    function getBidsCount(uint _auctionId) public view returns(uint){\r\n        return auctionBids[_auctionId].length;\r\n    }\r\n    \r\n    //for a given owner returns an array of owned auctions\r\n    function getAuctionsOf(address _owner) public view returns(uint[] memory){\r\n        uint[] memory owned = auctionOwner[_owner];\r\n        return owned;\r\n    }\r\n\r\n    //for a given auctionId returns the current bid\r\n    function getCurrentBid(uint _auctionId) public view returns(uint256, address){\r\n        uint bidsLen = auctionBids[_auctionId].length;\r\n\r\n        if(bidsLen > 0){\r\n            Bid memory lastBid = auctionBids[_auctionId][bidsLen-1];\r\n            return(lastBid.amount, lastBid.from);\r\n        }\r\n        //if you don't find anything just return 0's\r\n        return(uint256(0), address(0));\r\n    }\r\n\r\n\r\n    //number of auctions that the owner owns\r\n    function getAuctionsCountOfOwner(address _owner) public view returns(uint){\r\n        return auctionOwner[_owner].length;\r\n    }\r\n\r\n    function getAuctionById(uint _auctionId) public view returns(Auction memory){\r\n        return auctions[_auctionId];\r\n    }\r\n\r\n\r\n    /*\r\n    For the given info creates an auction and adds it to the collections\r\n    but only if the contract is the owner of the nft\r\n    returns a boolean value so the dev could see whether the auction is created\r\n    */\r\n    function createAuction(address _nftRepositoryAddress, uint256 _nftId, string memory _auctionTitle, string memory _metadata, uint256 _startPrice, uint _blockDeadline)\r\n    public contractIsNFTOwner(_nftRepositoryAddress, _nftId) returns(bool){\r\n        uint auctionId = auctions.length;\r\n        Auction memory newAuc;\r\n        newAuc.name = _auctionTitle;\r\n        newAuc.blockDeadline = _blockDeadline;\r\n        newAuc.startPrice = _startPrice;\r\n        newAuc.metadata = _metadata;\r\n        newAuc.nftId = _nftId;\r\n        newAuc.nftRepositoryAddress = _nftRepositoryAddress;\r\n        newAuc.owner = payable(msg.sender);\r\n        newAuc.active = true;\r\n        newAuc.finalized = false;\r\n\r\n        auctions.push(newAuc);\r\n        auctionOwner[msg.sender].push(auctionId);\r\n\r\n        emit CreatedAuction(msg.sender, auctionId);\r\n        return true;\r\n    } \r\n\r\n    //approves the transaction and transferes the nft\r\n    function approveAndTransfer(address _from, address _to, address _nftRepositoryAddress, uint256 _nftId) internal returns(bool){\r\n        NFT remoteContract = NFT(_nftRepositoryAddress);\r\n        remoteContract.approve(_to, _nftId);\r\n        remoteContract.transferFrom(_from, _to, _nftId);\r\n        return true;\r\n    }\r\n\r\n    /*\r\n    the owner cancels his ongoing auction\r\n    nft is transfered back to the owner from the contract\r\n    the winning bidder get his refund\r\n    */\r\n    function cancelAuction(uint _auctionId) public onlyOwner(_auctionId){\r\n        Auction memory myAuction = auctions[_auctionId];\r\n        uint bidsLen = auctionBids[_auctionId].length;\r\n\r\n        if(bidsLen > 0){\r\n            Bid memory lastBid = auctionBids[_auctionId][bidsLen-1];\r\n            if(!lastBid.from.send(lastBid.amount)){\r\n                revert();\r\n            }\r\n        }\r\n\r\n        //approve and transfer the transaction from this contract to the auction owner\r\n        if(approveAndTransfer(address(this), myAuction.owner, myAuction.nftRepositoryAddress, myAuction.nftId)){\r\n            auctions[_auctionId].active = false;\r\n            emit CanceledAuction(msg.sender, _auctionId);\r\n        }\r\n    }\r\n\r\n    //Behaves on the certain status of the auction\r\n    function finalizeAuction(uint _auctionId) public{\r\n        Auction memory myAuction = auctions[_auctionId];\r\n        uint bidsLen = auctionBids[_auctionId].length;\r\n\r\n        //if the auction hasn't ended yet just revert\r\n        if(block.timestamp < myAuction.blockDeadline) revert();\r\n\r\n        //if there are no bids it cancels the auction\r\n        if(bidsLen == 0){\r\n            cancelAuction(_auctionId);\r\n        }\r\n        else{// the money goes to the owner and the nft goes to the winner\r\n            Bid memory lastBid = auctionBids[_auctionId][bidsLen - 1];\r\n\r\n            if(!myAuction.owner.send(lastBid.amount)){\r\n                revert();\r\n            }\r\n\r\n            if(approveAndTransfer(address(this), lastBid.from, myAuction.nftRepositoryAddress, myAuction.nftId)){\r\n                auctions[_auctionId].active = false;\r\n                auctions[_auctionId].finalized = true;\r\n                emit FinalizedAuction(msg.sender, _auctionId);\r\n            }\r\n        }\r\n    }\r\n\r\n    function bidOnAuction(uint _auctionId) external payable {\r\n        uint ethSent = msg.value;\r\n        Auction memory myAuction = auctions[_auctionId];\r\n\r\n        //owner can't bid on his own auctions\r\n        if(myAuction.owner == msg.sender) revert();\r\n\r\n        //can't bid if the auction has expired\r\n        if(block.timestamp > myAuction.blockDeadline) revert();\r\n\r\n        uint bidsLen = auctionBids[_auctionId].length;\r\n        uint256 tmpAmount = myAuction.startPrice;\r\n        Bid memory lastBid;\r\n\r\n        //checking if there are any bids\r\n        if(bidsLen > 0){\r\n            lastBid = auctionBids[_auctionId][bidsLen - 1];\r\n            tmpAmount = lastBid.amount;\r\n        }\r\n\r\n        //the amount sent has to be greater than the last bid\r\n        if(ethSent < tmpAmount) revert();\r\n\r\n        //if everything passed we refund the last bidder\r\n        if(bidsLen > 0){\r\n            if(!lastBid.from.send(lastBid.amount)){\r\n                revert();\r\n            }\r\n        }\r\n\r\n        //and then insert the new bid\r\n        Bid memory newBid;\r\n        newBid.from = payable(msg.sender);\r\n        newBid.amount = ethSent;\r\n        auctionBids[_auctionId].push(newBid);\r\n\r\n        emit SuccessfulBid(msg.sender, _auctionId);\r\n\r\n    }\r\n\r\n    //----------------------------EVENTS-------------------------------------\r\n\r\n    event SuccessfulBid(address _from, uint _auctionId);\r\n\r\n    event CreatedAuction(address _owner, uint _auctionId);\r\n\r\n    event CanceledAuction(address _owner, uint _auctionId);\r\n\r\n    event FinalizedAuction(address _owner, uint _auctionId);\r\n\r\n}",
  "sourcePath": "D:/nft/src/contracts/AuctionHouse.sol",
  "compiler": {
    "name": "solc",
    "version": "0.8.6+commit.11564f7e.Emscripten.clang"
  },
  "schemaVersion": "3.4.1",
  "updatedAt": "2021-07-08T21:45:53.299Z",
  "networkType": "ethereum",
  "devdoc": {
    "kind": "dev",
    "methods": {},
    "version": 1
  },
  "userdoc": {
    "kind": "user",
    "methods": {},
    "version": 1
  }
}