{
  "contractName": "NFT",
  "abi": [
    {
      "inputs": [
        {
          "internalType": "string",
          "name": "_name",
          "type": "string"
        },
        {
          "internalType": "string",
          "name": "_symbol",
          "type": "string"
        }
      ],
      "stateMutability": "nonpayable",
      "type": "constructor"
    },
    {
      "anonymous": false,
      "inputs": [
        {
          "indexed": true,
          "internalType": "address",
          "name": "owner",
          "type": "address"
        },
        {
          "indexed": true,
          "internalType": "address",
          "name": "approved",
          "type": "address"
        },
        {
          "indexed": true,
          "internalType": "uint256",
          "name": "tokenId",
          "type": "uint256"
        }
      ],
      "name": "Approval",
      "type": "event"
    },
    {
      "anonymous": false,
      "inputs": [
        {
          "indexed": true,
          "internalType": "address",
          "name": "owner",
          "type": "address"
        },
        {
          "indexed": true,
          "internalType": "address",
          "name": "operator",
          "type": "address"
        },
        {
          "indexed": false,
          "internalType": "bool",
          "name": "approved",
          "type": "bool"
        }
      ],
      "name": "ApprovalForAll",
      "type": "event"
    },
    {
      "anonymous": false,
      "inputs": [
        {
          "indexed": false,
          "internalType": "address",
          "name": "_by",
          "type": "address"
        },
        {
          "indexed": false,
          "internalType": "uint256",
          "name": "_tokenId",
          "type": "uint256"
        }
      ],
      "name": "NFTRegistered",
      "type": "event"
    },
    {
      "anonymous": false,
      "inputs": [
        {
          "indexed": true,
          "internalType": "address",
          "name": "from",
          "type": "address"
        },
        {
          "indexed": true,
          "internalType": "address",
          "name": "to",
          "type": "address"
        },
        {
          "indexed": true,
          "internalType": "uint256",
          "name": "tokenId",
          "type": "uint256"
        }
      ],
      "name": "Transfer",
      "type": "event"
    },
    {
      "inputs": [
        {
          "internalType": "address",
          "name": "to",
          "type": "address"
        },
        {
          "internalType": "uint256",
          "name": "tokenId",
          "type": "uint256"
        }
      ],
      "name": "approve",
      "outputs": [],
      "stateMutability": "nonpayable",
      "type": "function"
    },
    {
      "inputs": [
        {
          "internalType": "address",
          "name": "owner",
          "type": "address"
        }
      ],
      "name": "balanceOf",
      "outputs": [
        {
          "internalType": "uint256",
          "name": "",
          "type": "uint256"
        }
      ],
      "stateMutability": "view",
      "type": "function",
      "constant": true
    },
    {
      "inputs": [
        {
          "internalType": "uint256",
          "name": "tokenId",
          "type": "uint256"
        }
      ],
      "name": "getApproved",
      "outputs": [
        {
          "internalType": "address",
          "name": "",
          "type": "address"
        }
      ],
      "stateMutability": "view",
      "type": "function",
      "constant": true
    },
    {
      "inputs": [
        {
          "internalType": "address",
          "name": "owner",
          "type": "address"
        },
        {
          "internalType": "address",
          "name": "operator",
          "type": "address"
        }
      ],
      "name": "isApprovedForAll",
      "outputs": [
        {
          "internalType": "bool",
          "name": "",
          "type": "bool"
        }
      ],
      "stateMutability": "view",
      "type": "function",
      "constant": true
    },
    {
      "inputs": [],
      "name": "name",
      "outputs": [
        {
          "internalType": "string",
          "name": "",
          "type": "string"
        }
      ],
      "stateMutability": "view",
      "type": "function",
      "constant": true
    },
    {
      "inputs": [
        {
          "internalType": "uint256",
          "name": "",
          "type": "uint256"
        }
      ],
      "name": "nftImages",
      "outputs": [
        {
          "internalType": "string",
          "name": "",
          "type": "string"
        }
      ],
      "stateMutability": "view",
      "type": "function",
      "constant": true
    },
    {
      "inputs": [
        {
          "internalType": "uint256",
          "name": "tokenId",
          "type": "uint256"
        }
      ],
      "name": "ownerOf",
      "outputs": [
        {
          "internalType": "address",
          "name": "",
          "type": "address"
        }
      ],
      "stateMutability": "view",
      "type": "function",
      "constant": true
    },
    {
      "inputs": [
        {
          "internalType": "address",
          "name": "from",
          "type": "address"
        },
        {
          "internalType": "address",
          "name": "to",
          "type": "address"
        },
        {
          "internalType": "uint256",
          "name": "tokenId",
          "type": "uint256"
        }
      ],
      "name": "safeTransferFrom",
      "outputs": [],
      "stateMutability": "nonpayable",
      "type": "function"
    },
    {
      "inputs": [
        {
          "internalType": "address",
          "name": "from",
          "type": "address"
        },
        {
          "internalType": "address",
          "name": "to",
          "type": "address"
        },
        {
          "internalType": "uint256",
          "name": "tokenId",
          "type": "uint256"
        },
        {
          "internalType": "bytes",
          "name": "_data",
          "type": "bytes"
        }
      ],
      "name": "safeTransferFrom",
      "outputs": [],
      "stateMutability": "nonpayable",
      "type": "function"
    },
    {
      "inputs": [
        {
          "internalType": "address",
          "name": "operator",
          "type": "address"
        },
        {
          "internalType": "bool",
          "name": "approved",
          "type": "bool"
        }
      ],
      "name": "setApprovalForAll",
      "outputs": [],
      "stateMutability": "nonpayable",
      "type": "function"
    },
    {
      "inputs": [
        {
          "internalType": "bytes4",
          "name": "interfaceId",
          "type": "bytes4"
        }
      ],
      "name": "supportsInterface",
      "outputs": [
        {
          "internalType": "bool",
          "name": "",
          "type": "bool"
        }
      ],
      "stateMutability": "view",
      "type": "function",
      "constant": true
    },
    {
      "inputs": [],
      "name": "symbol",
      "outputs": [
        {
          "internalType": "string",
          "name": "",
          "type": "string"
        }
      ],
      "stateMutability": "view",
      "type": "function",
      "constant": true
    },
    {
      "inputs": [
        {
          "internalType": "uint256",
          "name": "tokenId",
          "type": "uint256"
        }
      ],
      "name": "tokenURI",
      "outputs": [
        {
          "internalType": "string",
          "name": "",
          "type": "string"
        }
      ],
      "stateMutability": "view",
      "type": "function",
      "constant": true
    },
    {
      "inputs": [
        {
          "internalType": "address",
          "name": "from",
          "type": "address"
        },
        {
          "internalType": "address",
          "name": "to",
          "type": "address"
        },
        {
          "internalType": "uint256",
          "name": "tokenId",
          "type": "uint256"
        }
      ],
      "name": "transferFrom",
      "outputs": [],
      "stateMutability": "nonpayable",
      "type": "function"
    },
    {
      "inputs": [
        {
          "internalType": "string",
          "name": "_uri",
          "type": "string"
        }
      ],
      "name": "registerNFT",
      "outputs": [],
      "stateMutability": "nonpayable",
      "type": "function"
    },
    {
      "inputs": [
        {
          "internalType": "uint256",
          "name": "_tokenId",
          "type": "uint256"
        },
        {
          "internalType": "string",
          "name": "_uri",
          "type": "string"
        }
      ],
      "name": "addNFTMetadata",
      "outputs": [
        {
          "internalType": "bool",
          "name": "",
          "type": "bool"
        }
      ],
      "stateMutability": "nonpayable",
      "type": "function"
    }
  ],
  "bytecode": "0x60806040523480156200001157600080fd5b5060405162003257380380620032578339818101604052810190620000379190620001a3565b818181600090805190602001906200005192919062000075565b5080600190805190602001906200006a92919062000075565b5050505050620003ac565b8280546200008390620002bd565b90600052602060002090601f016020900481019282620000a75760008555620000f3565b82601f10620000c257805160ff1916838001178555620000f3565b82800160010185558215620000f3579182015b82811115620000f2578251825591602001919060010190620000d5565b5b50905062000102919062000106565b5090565b5b808211156200012157600081600090555060010162000107565b5090565b60006200013c620001368462000251565b62000228565b9050828152602081018484840111156200015b576200015a6200038c565b5b6200016884828562000287565b509392505050565b600082601f83011262000188576200018762000387565b5b81516200019a84826020860162000125565b91505092915050565b60008060408385031215620001bd57620001bc62000396565b5b600083015167ffffffffffffffff811115620001de57620001dd62000391565b5b620001ec8582860162000170565b925050602083015167ffffffffffffffff81111562000210576200020f62000391565b5b6200021e8582860162000170565b9150509250929050565b60006200023462000247565b9050620002428282620002f3565b919050565b6000604051905090565b600067ffffffffffffffff8211156200026f576200026e62000358565b5b6200027a826200039b565b9050602081019050919050565b60005b83811015620002a75780820151818401526020810190506200028a565b83811115620002b7576000848401525b50505050565b60006002820490506001821680620002d657607f821691505b60208210811415620002ed57620002ec62000329565b5b50919050565b620002fe826200039b565b810181811067ffffffffffffffff8211171562000320576200031f62000358565b5b80604052505050565b7f4e487b7100000000000000000000000000000000000000000000000000000000600052602260045260246000fd5b7f4e487b7100000000000000000000000000000000000000000000000000000000600052604160045260246000fd5b600080fd5b600080fd5b600080fd5b600080fd5b6000601f19601f8301169050919050565b612e9b80620003bc6000396000f3fe608060405234801561001057600080fd5b50600436106101005760003560e01c80636352211e11610097578063b88d4fde11610066578063b88d4fde146102d1578063c87b56dd146102ed578063e985e9c51461031d578063f57698b61461034d57610100565b80636352211e1461023757806370a082311461026757806395d89b4114610297578063a22cb465146102b557610100565b80630d3986a0116100d35780630d3986a01461019f57806323b872dd146101cf57806342842e0e146101eb578063433ea8891461020757610100565b806301ffc9a71461010557806306fdde0314610135578063081812fc14610153578063095ea7b314610183575b600080fd5b61011f600480360381019061011a9190611da8565b610369565b60405161012c91906122c2565b60405180910390f35b61013d61044b565b60405161014a91906122dd565b60405180910390f35b61016d60048036038101906101689190611e4b565b6104dd565b60405161017a9190612232565b60405180910390f35b61019d60048036038101906101989190611d68565b610562565b005b6101b960048036038101906101b49190611e78565b61067a565b6040516101c691906122c2565b60405180910390f35b6101e960048036038101906101e49190611c52565b610690565b005b61020560048036038101906102009190611c52565b6106f0565b005b610221600480360381019061021c9190611e4b565b610710565b60405161022e91906122dd565b60405180910390f35b610251600480360381019061024c9190611e4b565b6107bc565b60405161025e9190612232565b60405180910390f35b610281600480360381019061027c9190611be5565b61086e565b60405161028e919061251f565b60405180910390f35b61029f610926565b6040516102ac91906122dd565b60405180910390f35b6102cf60048036038101906102ca9190611d28565b6109b8565b005b6102eb60048036038101906102e69190611ca5565b610b39565b005b61030760048036038101906103029190611e4b565b610b9b565b60405161031491906122dd565b60405180910390f35b61033760048036038101906103329190611c12565b610ced565b60405161034491906122c2565b60405180910390f35b61036760048036038101906103629190611e02565b610d81565b005b60007f80ac58cd000000000000000000000000000000000000000000000000000000007bffffffffffffffffffffffffffffffffffffffffffffffffffffffff1916827bffffffffffffffffffffffffffffffffffffffffffffffffffffffff1916148061043457507f5b5e139f000000000000000000000000000000000000000000000000000000007bffffffffffffffffffffffffffffffffffffffffffffffffffffffff1916827bffffffffffffffffffffffffffffffffffffffffffffffffffffffff1916145b80610444575061044382610ebc565b5b9050919050565b60606000805461045a90612775565b80601f016020809104026020016040519081016040528092919081815260200182805461048690612775565b80156104d35780601f106104a8576101008083540402835291602001916104d3565b820191906000526020600020905b8154815290600101906020018083116104b657829003601f168201915b5050505050905090565b60006104e882610f26565b610527576040517f08c379a000000000000000000000000000000000000000000000000000000000815260040161051e9061245f565b60405180910390fd5b6004600083815260200190815260200160002060009054906101000a900473ffffffffffffffffffffffffffffffffffffffff169050919050565b600061056d826107bc565b90508073ffffffffffffffffffffffffffffffffffffffff168373ffffffffffffffffffffffffffffffffffffffff1614156105de576040517f08c379a00000000000000000000000000000000000000000000000000000000081526004016105d5906124df565b60405180910390fd5b8073ffffffffffffffffffffffffffffffffffffffff166105fd610f92565b73ffffffffffffffffffffffffffffffffffffffff16148061062c575061062b81610626610f92565b610ced565b5b61066b576040517f08c379a00000000000000000000000000000000000000000000000000000000081526004016106629061239f565b60405180910390fd5b6106758383610f9a565b505050565b60006106868383611053565b6001905092915050565b6106a161069b610f92565b826110c7565b6106e0576040517f08c379a00000000000000000000000000000000000000000000000000000000081526004016106d7906124ff565b60405180910390fd5b6106eb8383836111a5565b505050565b61070b83838360405180602001604052806000815250610b39565b505050565b6007818154811061072057600080fd5b90600052602060002001600091509050805461073b90612775565b80601f016020809104026020016040519081016040528092919081815260200182805461076790612775565b80156107b45780601f10610789576101008083540402835291602001916107b4565b820191906000526020600020905b81548152906001019060200180831161079757829003601f168201915b505050505081565b6000806002600084815260200190815260200160002060009054906101000a900473ffffffffffffffffffffffffffffffffffffffff169050600073ffffffffffffffffffffffffffffffffffffffff168173ffffffffffffffffffffffffffffffffffffffff161415610865576040517f08c379a000000000000000000000000000000000000000000000000000000000815260040161085c906123df565b60405180910390fd5b80915050919050565b60008073ffffffffffffffffffffffffffffffffffffffff168273ffffffffffffffffffffffffffffffffffffffff1614156108df576040517f08c379a00000000000000000000000000000000000000000000000000000000081526004016108d6906123bf565b60405180910390fd5b600360008373ffffffffffffffffffffffffffffffffffffffff1673ffffffffffffffffffffffffffffffffffffffff168152602001908152602001600020549050919050565b60606001805461093590612775565b80601f016020809104026020016040519081016040528092919081815260200182805461096190612775565b80156109ae5780601f10610983576101008083540402835291602001916109ae565b820191906000526020600020905b81548152906001019060200180831161099157829003601f168201915b5050505050905090565b6109c0610f92565b73ffffffffffffffffffffffffffffffffffffffff168273ffffffffffffffffffffffffffffffffffffffff161415610a2e576040517f08c379a0000000000000000000000000000000000000000000000000000000008152600401610a259061235f565b60405180910390fd5b8060056000610a3b610f92565b73ffffffffffffffffffffffffffffffffffffffff1673ffffffffffffffffffffffffffffffffffffffff16815260200190815260200160002060008473ffffffffffffffffffffffffffffffffffffffff1673ffffffffffffffffffffffffffffffffffffffff16815260200190815260200160002060006101000a81548160ff0219169083151502179055508173ffffffffffffffffffffffffffffffffffffffff16610ae8610f92565b73ffffffffffffffffffffffffffffffffffffffff167f17307eab39ab6107e8899845ad3d59bd9653f200f220920489ca2b5937696c3183604051610b2d91906122c2565b60405180910390a35050565b610b4a610b44610f92565b836110c7565b610b89576040517f08c379a0000000000000000000000000000000000000000000000000000000008152600401610b80906124ff565b60405180910390fd5b610b9584848484611401565b50505050565b6060610ba682610f26565b610be5576040517f08c379a0000000000000000000000000000000000000000000000000000000008152600401610bdc9061243f565b60405180910390fd5b6000600660008481526020019081526020016000208054610c0590612775565b80601f0160208091040260200160405190810160405280929190818152602001828054610c3190612775565b8015610c7e5780601f10610c5357610100808354040283529160200191610c7e565b820191906000526020600020905b815481529060010190602001808311610c6157829003601f168201915b505050505090506000610c8f61145d565b9050600081511415610ca5578192505050610ce8565b600082511115610cda578082604051602001610cc292919061220e565b60405160208183030381529060405292505050610ce8565b610ce384611474565b925050505b919050565b6000600560008473ffffffffffffffffffffffffffffffffffffffff1673ffffffffffffffffffffffffffffffffffffffff16815260200190815260200160002060008373ffffffffffffffffffffffffffffffffffffffff1673ffffffffffffffffffffffffffffffffffffffff16815260200190815260200160002060009054906101000a900460ff16905092915050565b600881604051610d9191906121f7565b908152602001604051809103902060009054906101000a900460ff1615610ded576040517f08c379a0000000000000000000000000000000000000000000000000000000008152600401610de4906124bf565b60405180910390fd5b60006007805490509050600782908060018154018082558091505060019003906000526020600020016000909190919091509080519060200190610e329291906119f9565b506001600883604051610e4591906121f7565b908152602001604051809103902060006101000a81548160ff021916908315150217905550610e74338261151b565b610e7e818361067a565b507f372fac516583945ba52554f7f43c94793d1faff5317a4ab4a7fbff0f11aa586f3382604051610eb0929190612299565b60405180910390a15050565b60007f01ffc9a7000000000000000000000000000000000000000000000000000000007bffffffffffffffffffffffffffffffffffffffffffffffffffffffff1916827bffffffffffffffffffffffffffffffffffffffffffffffffffffffff1916149050919050565b60008073ffffffffffffffffffffffffffffffffffffffff166002600084815260200190815260200160002060009054906101000a900473ffffffffffffffffffffffffffffffffffffffff1673ffffffffffffffffffffffffffffffffffffffff1614159050919050565b600033905090565b816004600083815260200190815260200160002060006101000a81548173ffffffffffffffffffffffffffffffffffffffff021916908373ffffffffffffffffffffffffffffffffffffffff160217905550808273ffffffffffffffffffffffffffffffffffffffff1661100d836107bc565b73ffffffffffffffffffffffffffffffffffffffff167f8c5be1e5ebec7d5bd14f71427d1e84f3dd0314c0f7b2291e5b200ac8c7c3b92560405160405180910390a45050565b61105c82610f26565b61109b576040517f08c379a0000000000000000000000000000000000000000000000000000000008152600401611092906123ff565b60405180910390fd5b806006600084815260200190815260200160002090805190602001906110c29291906119f9565b505050565b60006110d282610f26565b611111576040517f08c379a00000000000000000000000000000000000000000000000000000000081526004016111089061237f565b60405180910390fd5b600061111c836107bc565b90508073ffffffffffffffffffffffffffffffffffffffff168473ffffffffffffffffffffffffffffffffffffffff16148061118b57508373ffffffffffffffffffffffffffffffffffffffff16611173846104dd565b73ffffffffffffffffffffffffffffffffffffffff16145b8061119c575061119b8185610ced565b5b91505092915050565b8273ffffffffffffffffffffffffffffffffffffffff166111c5826107bc565b73ffffffffffffffffffffffffffffffffffffffff161461121b576040517f08c379a00000000000000000000000000000000000000000000000000000000081526004016112129061247f565b60405180910390fd5b600073ffffffffffffffffffffffffffffffffffffffff168273ffffffffffffffffffffffffffffffffffffffff16141561128b576040517f08c379a00000000000000000000000000000000000000000000000000000000081526004016112829061233f565b60405180910390fd5b6112968383836116e9565b6112a1600082610f9a565b6001600360008573ffffffffffffffffffffffffffffffffffffffff1673ffffffffffffffffffffffffffffffffffffffff16815260200190815260200160002060008282546112f1919061268b565b925050819055506001600360008473ffffffffffffffffffffffffffffffffffffffff1673ffffffffffffffffffffffffffffffffffffffff16815260200190815260200160002060008282546113489190612604565b92505081905550816002600083815260200190815260200160002060006101000a81548173ffffffffffffffffffffffffffffffffffffffff021916908373ffffffffffffffffffffffffffffffffffffffff160217905550808273ffffffffffffffffffffffffffffffffffffffff168473ffffffffffffffffffffffffffffffffffffffff167fddf252ad1be2c89b69c2b068fc378daa952ba7f163c4a11628f55a4df523b3ef60405160405180910390a4505050565b61140c8484846111a5565b611418848484846116ee565b611457576040517f08c379a000000000000000000000000000000000000000000000000000000000815260040161144e906122ff565b60405180910390fd5b50505050565b606060405180602001604052806000815250905090565b606061147f82610f26565b6114be576040517f08c379a00000000000000000000000000000000000000000000000000000000081526004016114b59061249f565b60405180910390fd5b60006114c861145d565b905060008151116114e85760405180602001604052806000815250611513565b806114f284611885565b60405160200161150392919061220e565b6040516020818303038152906040525b915050919050565b600073ffffffffffffffffffffffffffffffffffffffff168273ffffffffffffffffffffffffffffffffffffffff16141561158b576040517f08c379a00000000000000000000000000000000000000000000000000000000081526004016115829061241f565b60405180910390fd5b61159481610f26565b156115d4576040517f08c379a00000000000000000000000000000000000000000000000000000000081526004016115cb9061231f565b60405180910390fd5b6115e0600083836116e9565b6001600360008473ffffffffffffffffffffffffffffffffffffffff1673ffffffffffffffffffffffffffffffffffffffff16815260200190815260200160002060008282546116309190612604565b92505081905550816002600083815260200190815260200160002060006101000a81548173ffffffffffffffffffffffffffffffffffffffff021916908373ffffffffffffffffffffffffffffffffffffffff160217905550808273ffffffffffffffffffffffffffffffffffffffff16600073ffffffffffffffffffffffffffffffffffffffff167fddf252ad1be2c89b69c2b068fc378daa952ba7f163c4a11628f55a4df523b3ef60405160405180910390a45050565b505050565b600061170f8473ffffffffffffffffffffffffffffffffffffffff166119e6565b15611878578373ffffffffffffffffffffffffffffffffffffffff1663150b7a02611738610f92565b8786866040518563ffffffff1660e01b815260040161175a949392919061224d565b602060405180830381600087803b15801561177457600080fd5b505af19250505080156117a557506040513d601f19601f820116820180604052508101906117a29190611dd5565b60015b611828573d80600081146117d5576040519150601f19603f3d011682016040523d82523d6000602084013e6117da565b606091505b50600081511415611820576040517f08c379a0000000000000000000000000000000000000000000000000000000008152600401611817906122ff565b60405180910390fd5b805181602001fd5b63150b7a0260e01b7bffffffffffffffffffffffffffffffffffffffffffffffffffffffff1916817bffffffffffffffffffffffffffffffffffffffffffffffffffffffff19161491505061187d565b600190505b949350505050565b606060008214156118cd576040518060400160405280600181526020017f300000000000000000000000000000000000000000000000000000000000000081525090506119e1565b600082905060005b600082146118ff5780806118e8906127d8565b915050600a826118f8919061265a565b91506118d5565b60008167ffffffffffffffff81111561191b5761191a61290e565b5b6040519080825280601f01601f19166020018201604052801561194d5781602001600182028036833780820191505090505b5090505b600085146119da57600182611966919061268b565b9150600a856119759190612821565b60306119819190612604565b60f81b818381518110611997576119966128df565b5b60200101907effffffffffffffffffffffffffffffffffffffffffffffffffffffffffffff1916908160001a905350600a856119d3919061265a565b9450611951565b8093505050505b919050565b600080823b905060008111915050919050565b828054611a0590612775565b90600052602060002090601f016020900481019282611a275760008555611a6e565b82601f10611a4057805160ff1916838001178555611a6e565b82800160010185558215611a6e579182015b82811115611a6d578251825591602001919060010190611a52565b5b509050611a7b9190611a7f565b5090565b5b80821115611a98576000816000905550600101611a80565b5090565b6000611aaf611aaa8461255f565b61253a565b905082815260208101848484011115611acb57611aca612942565b5b611ad6848285612733565b509392505050565b6000611af1611aec84612590565b61253a565b905082815260208101848484011115611b0d57611b0c612942565b5b611b18848285612733565b509392505050565b600081359050611b2f81612e09565b92915050565b600081359050611b4481612e20565b92915050565b600081359050611b5981612e37565b92915050565b600081519050611b6e81612e37565b92915050565b600082601f830112611b8957611b8861293d565b5b8135611b99848260208601611a9c565b91505092915050565b600082601f830112611bb757611bb661293d565b5b8135611bc7848260208601611ade565b91505092915050565b600081359050611bdf81612e4e565b92915050565b600060208284031215611bfb57611bfa61294c565b5b6000611c0984828501611b20565b91505092915050565b60008060408385031215611c2957611c2861294c565b5b6000611c3785828601611b20565b9250506020611c4885828601611b20565b9150509250929050565b600080600060608486031215611c6b57611c6a61294c565b5b6000611c7986828701611b20565b9350506020611c8a86828701611b20565b9250506040611c9b86828701611bd0565b9150509250925092565b60008060008060808587031215611cbf57611cbe61294c565b5b6000611ccd87828801611b20565b9450506020611cde87828801611b20565b9350506040611cef87828801611bd0565b925050606085013567ffffffffffffffff811115611d1057611d0f612947565b5b611d1c87828801611b74565b91505092959194509250565b60008060408385031215611d3f57611d3e61294c565b5b6000611d4d85828601611b20565b9250506020611d5e85828601611b35565b9150509250929050565b60008060408385031215611d7f57611d7e61294c565b5b6000611d8d85828601611b20565b9250506020611d9e85828601611bd0565b9150509250929050565b600060208284031215611dbe57611dbd61294c565b5b6000611dcc84828501611b4a565b91505092915050565b600060208284031215611deb57611dea61294c565b5b6000611df984828501611b5f565b91505092915050565b600060208284031215611e1857611e1761294c565b5b600082013567ffffffffffffffff811115611e3657611e35612947565b5b611e4284828501611ba2565b91505092915050565b600060208284031215611e6157611e6061294c565b5b6000611e6f84828501611bd0565b91505092915050565b60008060408385031215611e8f57611e8e61294c565b5b6000611e9d85828601611bd0565b925050602083013567ffffffffffffffff811115611ebe57611ebd612947565b5b611eca85828601611ba2565b9150509250929050565b611edd816126bf565b82525050565b611eec816126d1565b82525050565b6000611efd826125c1565b611f0781856125d7565b9350611f17818560208601612742565b611f2081612951565b840191505092915050565b6000611f36826125cc565b611f4081856125e8565b9350611f50818560208601612742565b611f5981612951565b840191505092915050565b6000611f6f826125cc565b611f7981856125f9565b9350611f89818560208601612742565b80840191505092915050565b6000611fa26032836125e8565b9150611fad82612962565b604082019050919050565b6000611fc5601c836125e8565b9150611fd0826129b1565b602082019050919050565b6000611fe86024836125e8565b9150611ff3826129da565b604082019050919050565b600061200b6019836125e8565b915061201682612a29565b602082019050919050565b600061202e602c836125e8565b915061203982612a52565b604082019050919050565b60006120516038836125e8565b915061205c82612aa1565b604082019050919050565b6000612074602a836125e8565b915061207f82612af0565b604082019050919050565b60006120976029836125e8565b91506120a282612b3f565b604082019050919050565b60006120ba602e836125e8565b91506120c582612b8e565b604082019050919050565b60006120dd6020836125e8565b91506120e882612bdd565b602082019050919050565b60006121006031836125e8565b915061210b82612c06565b604082019050919050565b6000612123602c836125e8565b915061212e82612c55565b604082019050919050565b60006121466029836125e8565b915061215182612ca4565b604082019050919050565b6000612169602f836125e8565b915061217482612cf3565b604082019050919050565b600061218c601c836125e8565b915061219782612d42565b602082019050919050565b60006121af6021836125e8565b91506121ba82612d6b565b604082019050919050565b60006121d26031836125e8565b91506121dd82612dba565b604082019050919050565b6121f181612729565b82525050565b60006122038284611f64565b915081905092915050565b600061221a8285611f64565b91506122268284611f64565b91508190509392505050565b60006020820190506122476000830184611ed4565b92915050565b60006080820190506122626000830187611ed4565b61226f6020830186611ed4565b61227c60408301856121e8565b818103606083015261228e8184611ef2565b905095945050505050565b60006040820190506122ae6000830185611ed4565b6122bb60208301846121e8565b9392505050565b60006020820190506122d76000830184611ee3565b92915050565b600060208201905081810360008301526122f78184611f2b565b905092915050565b6000602082019050818103600083015261231881611f95565b9050919050565b6000602082019050818103600083015261233881611fb8565b9050919050565b6000602082019050818103600083015261235881611fdb565b9050919050565b6000602082019050818103600083015261237881611ffe565b9050919050565b6000602082019050818103600083015261239881612021565b9050919050565b600060208201905081810360008301526123b881612044565b9050919050565b600060208201905081810360008301526123d881612067565b9050919050565b600060208201905081810360008301526123f88161208a565b9050919050565b60006020820190508181036000830152612418816120ad565b9050919050565b60006020820190508181036000830152612438816120d0565b9050919050565b60006020820190508181036000830152612458816120f3565b9050919050565b6000602082019050818103600083015261247881612116565b9050919050565b6000602082019050818103600083015261249881612139565b9050919050565b600060208201905081810360008301526124b88161215c565b9050919050565b600060208201905081810360008301526124d88161217f565b9050919050565b600060208201905081810360008301526124f8816121a2565b9050919050565b60006020820190508181036000830152612518816121c5565b9050919050565b600060208201905061253460008301846121e8565b92915050565b6000612544612555565b905061255082826127a7565b919050565b6000604051905090565b600067ffffffffffffffff82111561257a5761257961290e565b5b61258382612951565b9050602081019050919050565b600067ffffffffffffffff8211156125ab576125aa61290e565b5b6125b482612951565b9050602081019050919050565b600081519050919050565b600081519050919050565b600082825260208201905092915050565b600082825260208201905092915050565b600081905092915050565b600061260f82612729565b915061261a83612729565b9250827fffffffffffffffffffffffffffffffffffffffffffffffffffffffffffffffff0382111561264f5761264e612852565b5b828201905092915050565b600061266582612729565b915061267083612729565b9250826126805761267f612881565b5b828204905092915050565b600061269682612729565b91506126a183612729565b9250828210156126b4576126b3612852565b5b828203905092915050565b60006126ca82612709565b9050919050565b60008115159050919050565b60007fffffffff0000000000000000000000000000000000000000000000000000000082169050919050565b600073ffffffffffffffffffffffffffffffffffffffff82169050919050565b6000819050919050565b82818337600083830152505050565b60005b83811015612760578082015181840152602081019050612745565b8381111561276f576000848401525b50505050565b6000600282049050600182168061278d57607f821691505b602082108114156127a1576127a06128b0565b5b50919050565b6127b082612951565b810181811067ffffffffffffffff821117156127cf576127ce61290e565b5b80604052505050565b60006127e382612729565b91507fffffffffffffffffffffffffffffffffffffffffffffffffffffffffffffffff82141561281657612815612852565b5b600182019050919050565b600061282c82612729565b915061283783612729565b92508261284757612846612881565b5b828206905092915050565b7f4e487b7100000000000000000000000000000000000000000000000000000000600052601160045260246000fd5b7f4e487b7100000000000000000000000000000000000000000000000000000000600052601260045260246000fd5b7f4e487b7100000000000000000000000000000000000000000000000000000000600052602260045260246000fd5b7f4e487b7100000000000000000000000000000000000000000000000000000000600052603260045260246000fd5b7f4e487b7100000000000000000000000000000000000000000000000000000000600052604160045260246000fd5b600080fd5b600080fd5b600080fd5b600080fd5b6000601f19601f8301169050919050565b7f4552433732313a207472616e7366657220746f206e6f6e20455243373231526560008201527f63656976657220696d706c656d656e7465720000000000000000000000000000602082015250565b7f4552433732313a20746f6b656e20616c7265616479206d696e74656400000000600082015250565b7f4552433732313a207472616e7366657220746f20746865207a65726f2061646460008201527f7265737300000000000000000000000000000000000000000000000000000000602082015250565b7f4552433732313a20617070726f766520746f2063616c6c657200000000000000600082015250565b7f4552433732313a206f70657261746f7220717565727920666f72206e6f6e657860008201527f697374656e7420746f6b656e0000000000000000000000000000000000000000602082015250565b7f4552433732313a20617070726f76652063616c6c6572206973206e6f74206f7760008201527f6e6572206e6f7220617070726f76656420666f7220616c6c0000000000000000602082015250565b7f4552433732313a2062616c616e636520717565727920666f7220746865207a6560008201527f726f206164647265737300000000000000000000000000000000000000000000602082015250565b7f4552433732313a206f776e657220717565727920666f72206e6f6e657869737460008201527f656e7420746f6b656e0000000000000000000000000000000000000000000000602082015250565b7f45524337323155524953746f726167653a2055524920736574206f66206e6f6e60008201527f6578697374656e7420746f6b656e000000000000000000000000000000000000602082015250565b7f4552433732313a206d696e7420746f20746865207a65726f2061646472657373600082015250565b7f45524337323155524953746f726167653a2055524920717565727920666f722060008201527f6e6f6e6578697374656e7420746f6b656e000000000000000000000000000000602082015250565b7f4552433732313a20617070726f76656420717565727920666f72206e6f6e657860008201527f697374656e7420746f6b656e0000000000000000000000000000000000000000602082015250565b7f4552433732313a207472616e73666572206f6620746f6b656e2074686174206960008201527f73206e6f74206f776e0000000000000000000000000000000000000000000000602082015250565b7f4552433732314d657461646174613a2055524920717565727920666f72206e6f60008201527f6e6578697374656e7420746f6b656e0000000000000000000000000000000000602082015250565b7f54686572652063616e27742062652074776f2073616d65204e46547300000000600082015250565b7f4552433732313a20617070726f76616c20746f2063757272656e74206f776e6560008201527f7200000000000000000000000000000000000000000000000000000000000000602082015250565b7f4552433732313a207472616e736665722063616c6c6572206973206e6f74206f60008201527f776e6572206e6f7220617070726f766564000000000000000000000000000000602082015250565b612e12816126bf565b8114612e1d57600080fd5b50565b612e29816126d1565b8114612e3457600080fd5b50565b612e40816126dd565b8114612e4b57600080fd5b50565b612e5781612729565b8114612e6257600080fd5b5056fea2646970667358221220ac7dc94b3caed633d519f4f3c79728e0b8f266f0a0eb9c3b922fc7eb84839f1064736f6c63430008060033",
  "immutableReferences": {},
  "source": "pragma solidity ^0.8.0;\r\n\r\nimport \"@openzeppelin/contracts/token/ERC721/extensions/ERC721URIStorage.sol\";\r\n\r\ncontract NFT is ERC721URIStorage {\r\n\r\n    string[] public nftImages;\r\n    mapping(string => bool) _nftExists;\r\n\r\n   constructor(string memory _name, string memory _symbol)  ERC721(_name, _symbol){}\r\n\r\n    /*\r\n    When an NFT is registered an event is triggered\r\n    which shows which NFT has been registered\r\n    _by represents the who registered the NFT\r\n    _tokenId represents the specific NFT \r\n    */\r\n    event NFTRegistered(address _by, uint256 _tokenId);\r\n\r\n    /*\r\n    registerNFT is a public function used to register an NFT\r\n    it uses _mint function of the ERC721 token\r\n    _tokenId will represent an NFT and _uri will contain metadata\r\n    */\r\n    function registerNFT(string memory _uri) public {\r\n        require(!_nftExists[_uri], \"There can't be two same NFTs\");\r\n        uint256 _tokenId = nftImages.length;\r\n        nftImages.push(_uri);\r\n        _nftExists[_uri] = true;\r\n       _mint(msg.sender, _tokenId);\r\n       addNFTMetadata(_tokenId, _uri);\r\n       emit NFTRegistered(msg.sender, _tokenId);\r\n    } \r\n\r\n\r\n    function  addNFTMetadata(uint256 _tokenId, string memory _uri) public returns(bool){\r\n        _setTokenURI(_tokenId, _uri);\r\n        return true;\r\n    }\r\n\r\n}",
  "sourcePath": "D:\\nft\\src\\contracts\\NFT.sol",
  "compiler": {
    "name": "solc",
    "version": "0.8.6+commit.11564f7e.Emscripten.clang"
  },
  "schemaVersion": "3.4.1",
  "updatedAt": "2021-07-08T21:45:53.332Z",
  "networkType": "ethereum",
  "devdoc": {
    "kind": "dev",
    "methods": {
      "approve(address,uint256)": {
        "details": "See {IERC721-approve}."
      },
      "balanceOf(address)": {
        "details": "See {IERC721-balanceOf}."
      },
      "getApproved(uint256)": {
        "details": "See {IERC721-getApproved}."
      },
      "isApprovedForAll(address,address)": {
        "details": "See {IERC721-isApprovedForAll}."
      },
      "name()": {
        "details": "See {IERC721Metadata-name}."
      },
      "ownerOf(uint256)": {
        "details": "See {IERC721-ownerOf}."
      },
      "safeTransferFrom(address,address,uint256)": {
        "details": "See {IERC721-safeTransferFrom}."
      },
      "safeTransferFrom(address,address,uint256,bytes)": {
        "details": "See {IERC721-safeTransferFrom}."
      },
      "setApprovalForAll(address,bool)": {
        "details": "See {IERC721-setApprovalForAll}."
      },
      "supportsInterface(bytes4)": {
        "details": "See {IERC165-supportsInterface}."
      },
      "symbol()": {
        "details": "See {IERC721Metadata-symbol}."
      },
      "tokenURI(uint256)": {
        "details": "See {IERC721Metadata-tokenURI}."
      },
      "transferFrom(address,address,uint256)": {
        "details": "See {IERC721-transferFrom}."
      }
    },
    "version": 1
  },
  "userdoc": {
    "kind": "user",
    "methods": {},
    "version": 1
  }
}