{
  "contractName": "NFT",
  "abi": [
    {
      "inputs": [
        {
          "internalType": "string",
          "name": "_name",
          "type": "string"
        },
        {
          "internalType": "string",
          "name": "_symbol",
          "type": "string"
        }
      ],
      "stateMutability": "nonpayable",
      "type": "constructor"
    },
    {
      "anonymous": false,
      "inputs": [
        {
          "indexed": true,
          "internalType": "address",
          "name": "owner",
          "type": "address"
        },
        {
          "indexed": true,
          "internalType": "address",
          "name": "approved",
          "type": "address"
        },
        {
          "indexed": true,
          "internalType": "uint256",
          "name": "tokenId",
          "type": "uint256"
        }
      ],
      "name": "Approval",
      "type": "event"
    },
    {
      "anonymous": false,
      "inputs": [
        {
          "indexed": true,
          "internalType": "address",
          "name": "owner",
          "type": "address"
        },
        {
          "indexed": true,
          "internalType": "address",
          "name": "operator",
          "type": "address"
        },
        {
          "indexed": false,
          "internalType": "bool",
          "name": "approved",
          "type": "bool"
        }
      ],
      "name": "ApprovalForAll",
      "type": "event"
    },
    {
      "anonymous": false,
      "inputs": [
        {
          "indexed": false,
          "internalType": "address",
          "name": "_by",
          "type": "address"
        },
        {
          "indexed": false,
          "internalType": "uint256",
          "name": "_tokenId",
          "type": "uint256"
        }
      ],
      "name": "NFTRegistered",
      "type": "event"
    },
    {
      "anonymous": false,
      "inputs": [
        {
          "indexed": true,
          "internalType": "address",
          "name": "from",
          "type": "address"
        },
        {
          "indexed": true,
          "internalType": "address",
          "name": "to",
          "type": "address"
        },
        {
          "indexed": true,
          "internalType": "uint256",
          "name": "tokenId",
          "type": "uint256"
        }
      ],
      "name": "Transfer",
      "type": "event"
    },
    {
      "inputs": [
        {
          "internalType": "address",
          "name": "to",
          "type": "address"
        },
        {
          "internalType": "uint256",
          "name": "tokenId",
          "type": "uint256"
        }
      ],
      "name": "approve",
      "outputs": [],
      "stateMutability": "nonpayable",
      "type": "function"
    },
    {
      "inputs": [
        {
          "internalType": "address",
          "name": "owner",
          "type": "address"
        }
      ],
      "name": "balanceOf",
      "outputs": [
        {
          "internalType": "uint256",
          "name": "",
          "type": "uint256"
        }
      ],
      "stateMutability": "view",
      "type": "function",
      "constant": true
    },
    {
      "inputs": [
        {
          "internalType": "uint256",
          "name": "tokenId",
          "type": "uint256"
        }
      ],
      "name": "getApproved",
      "outputs": [
        {
          "internalType": "address",
          "name": "",
          "type": "address"
        }
      ],
      "stateMutability": "view",
      "type": "function",
      "constant": true
    },
    {
      "inputs": [
        {
          "internalType": "address",
          "name": "owner",
          "type": "address"
        },
        {
          "internalType": "address",
          "name": "operator",
          "type": "address"
        }
      ],
      "name": "isApprovedForAll",
      "outputs": [
        {
          "internalType": "bool",
          "name": "",
          "type": "bool"
        }
      ],
      "stateMutability": "view",
      "type": "function",
      "constant": true
    },
    {
      "inputs": [],
      "name": "name",
      "outputs": [
        {
          "internalType": "string",
          "name": "",
          "type": "string"
        }
      ],
      "stateMutability": "view",
      "type": "function",
      "constant": true
    },
    {
      "inputs": [
        {
          "internalType": "uint256",
          "name": "",
          "type": "uint256"
        }
      ],
      "name": "nftImages",
      "outputs": [
        {
          "internalType": "string",
          "name": "uri",
          "type": "string"
        },
        {
          "internalType": "string",
          "name": "itemName",
          "type": "string"
        },
        {
          "internalType": "string",
          "name": "itemDesc",
          "type": "string"
        },
        {
          "internalType": "uint256",
          "name": "auctionPrice",
          "type": "uint256"
        },
        {
          "internalType": "uint256",
          "name": "Id",
          "type": "uint256"
        }
      ],
      "stateMutability": "view",
      "type": "function",
      "constant": true
    },
    {
      "inputs": [
        {
          "internalType": "uint256",
          "name": "tokenId",
          "type": "uint256"
        }
      ],
      "name": "ownerOf",
      "outputs": [
        {
          "internalType": "address",
          "name": "",
          "type": "address"
        }
      ],
      "stateMutability": "view",
      "type": "function",
      "constant": true
    },
    {
      "inputs": [
        {
          "internalType": "address",
          "name": "from",
          "type": "address"
        },
        {
          "internalType": "address",
          "name": "to",
          "type": "address"
        },
        {
          "internalType": "uint256",
          "name": "tokenId",
          "type": "uint256"
        }
      ],
      "name": "safeTransferFrom",
      "outputs": [],
      "stateMutability": "nonpayable",
      "type": "function"
    },
    {
      "inputs": [
        {
          "internalType": "address",
          "name": "from",
          "type": "address"
        },
        {
          "internalType": "address",
          "name": "to",
          "type": "address"
        },
        {
          "internalType": "uint256",
          "name": "tokenId",
          "type": "uint256"
        },
        {
          "internalType": "bytes",
          "name": "_data",
          "type": "bytes"
        }
      ],
      "name": "safeTransferFrom",
      "outputs": [],
      "stateMutability": "nonpayable",
      "type": "function"
    },
    {
      "inputs": [
        {
          "internalType": "address",
          "name": "operator",
          "type": "address"
        },
        {
          "internalType": "bool",
          "name": "approved",
          "type": "bool"
        }
      ],
      "name": "setApprovalForAll",
      "outputs": [],
      "stateMutability": "nonpayable",
      "type": "function"
    },
    {
      "inputs": [
        {
          "internalType": "bytes4",
          "name": "interfaceId",
          "type": "bytes4"
        }
      ],
      "name": "supportsInterface",
      "outputs": [
        {
          "internalType": "bool",
          "name": "",
          "type": "bool"
        }
      ],
      "stateMutability": "view",
      "type": "function",
      "constant": true
    },
    {
      "inputs": [],
      "name": "symbol",
      "outputs": [
        {
          "internalType": "string",
          "name": "",
          "type": "string"
        }
      ],
      "stateMutability": "view",
      "type": "function",
      "constant": true
    },
    {
      "inputs": [
        {
          "internalType": "uint256",
          "name": "tokenId",
          "type": "uint256"
        }
      ],
      "name": "tokenURI",
      "outputs": [
        {
          "internalType": "string",
          "name": "",
          "type": "string"
        }
      ],
      "stateMutability": "view",
      "type": "function",
      "constant": true
    },
    {
      "inputs": [
        {
          "internalType": "address",
          "name": "from",
          "type": "address"
        },
        {
          "internalType": "address",
          "name": "to",
          "type": "address"
        },
        {
          "internalType": "uint256",
          "name": "tokenId",
          "type": "uint256"
        }
      ],
      "name": "transferFrom",
      "outputs": [],
      "stateMutability": "nonpayable",
      "type": "function"
    },
    {
      "inputs": [
        {
          "internalType": "string",
          "name": "_uri",
          "type": "string"
        },
        {
          "internalType": "string",
          "name": "_name",
          "type": "string"
        },
        {
          "internalType": "string",
          "name": "_desc",
          "type": "string"
        },
        {
          "internalType": "uint256",
          "name": "_price",
          "type": "uint256"
        }
      ],
      "name": "registerNFT",
      "outputs": [],
      "stateMutability": "nonpayable",
      "type": "function"
    },
    {
      "inputs": [
        {
          "internalType": "uint256",
          "name": "_tokenId",
          "type": "uint256"
        },
        {
          "internalType": "string",
          "name": "_uri",
          "type": "string"
        }
      ],
      "name": "addNFTMetadata",
      "outputs": [
        {
          "internalType": "bool",
          "name": "",
          "type": "bool"
        }
      ],
      "stateMutability": "nonpayable",
      "type": "function"
    },
    {
      "inputs": [
        {
          "internalType": "uint256",
          "name": "_tokenId",
          "type": "uint256"
        }
      ],
      "name": "getUri",
      "outputs": [
        {
          "internalType": "string",
          "name": "",
          "type": "string"
        }
      ],
      "stateMutability": "view",
      "type": "function",
      "constant": true
    },
    {
      "inputs": [
        {
          "internalType": "uint256",
          "name": "_tokenId",
          "type": "uint256"
        }
      ],
      "name": "getName",
      "outputs": [
        {
          "internalType": "string",
          "name": "",
          "type": "string"
        }
      ],
      "stateMutability": "view",
      "type": "function",
      "constant": true
    },
    {
      "inputs": [
        {
          "internalType": "uint256",
          "name": "_tokenId",
          "type": "uint256"
        }
      ],
      "name": "getDesc",
      "outputs": [
        {
          "internalType": "string",
          "name": "",
          "type": "string"
        }
      ],
      "stateMutability": "view",
      "type": "function",
      "constant": true
    },
    {
      "inputs": [],
      "name": "totalSupply",
      "outputs": [
        {
          "internalType": "uint256",
          "name": "",
          "type": "uint256"
        }
      ],
      "stateMutability": "view",
      "type": "function",
      "constant": true
    }
  ],
  "bytecode": "0x60806040523480156200001157600080fd5b506040516200383e3803806200383e8339818101604052810190620000379190620001a3565b818181600090805190602001906200005192919062000075565b5080600190805190602001906200006a92919062000075565b5050505050620003ac565b8280546200008390620002bd565b90600052602060002090601f016020900481019282620000a75760008555620000f3565b82601f10620000c257805160ff1916838001178555620000f3565b82800160010185558215620000f3579182015b82811115620000f2578251825591602001919060010190620000d5565b5b50905062000102919062000106565b5090565b5b808211156200012157600081600090555060010162000107565b5090565b60006200013c620001368462000251565b62000228565b9050828152602081018484840111156200015b576200015a6200038c565b5b6200016884828562000287565b509392505050565b600082601f83011262000188576200018762000387565b5b81516200019a84826020860162000125565b91505092915050565b60008060408385031215620001bd57620001bc62000396565b5b600083015167ffffffffffffffff811115620001de57620001dd62000391565b5b620001ec8582860162000170565b925050602083015167ffffffffffffffff81111562000210576200020f62000391565b5b6200021e8582860162000170565b9150509250929050565b60006200023462000247565b9050620002428282620002f3565b919050565b6000604051905090565b600067ffffffffffffffff8211156200026f576200026e62000358565b5b6200027a826200039b565b9050602081019050919050565b60005b83811015620002a75780820151818401526020810190506200028a565b83811115620002b7576000848401525b50505050565b60006002820490506001821680620002d657607f821691505b60208210811415620002ed57620002ec62000329565b5b50919050565b620002fe826200039b565b810181811067ffffffffffffffff8211171562000320576200031f62000358565b5b80604052505050565b7f4e487b7100000000000000000000000000000000000000000000000000000000600052602260045260246000fd5b7f4e487b7100000000000000000000000000000000000000000000000000000000600052604160045260246000fd5b600080fd5b600080fd5b600080fd5b600080fd5b6000601f19601f8301169050919050565b61348280620003bc6000396000f3fe608060405234801561001057600080fd5b506004361061012c5760003560e01c80636352211e116100ad578063b88d4fde11610071578063b88d4fde1461037f578063c87b56dd1461039b578063da0544aa146103cb578063e985e9c5146103fb578063ef1d8d7d1461042b5761012c565b80636352211e146102b55780636b8ff574146102e557806370a082311461031557806395d89b4114610345578063a22cb465146103635761012c565b806318160ddd116100f457806318160ddd146101fb57806323b872dd146102195780632cca4ba71461023557806342842e0e14610265578063433ea889146102815761012c565b806301ffc9a71461013157806306fdde0314610161578063081812fc1461017f578063095ea7b3146101af5780630d3986a0146101cb575b600080fd5b61014b600480360381019061014691906122b5565b610447565b6040516101589190612841565b60405180910390f35b610169610529565b604051610176919061285c565b60405180910390f35b610199600480360381019061019491906123ca565b6105bb565b6040516101a691906127b1565b60405180910390f35b6101c960048036038101906101c49190612275565b610640565b005b6101e560048036038101906101e091906123f7565b610758565b6040516101f29190612841565b60405180910390f35b61020361076e565b6040516102109190612b06565b60405180910390f35b610233600480360381019061022e919061215f565b61077b565b005b61024f600480360381019061024a91906123ca565b6107db565b60405161025c919061285c565b60405180910390f35b61027f600480360381019061027a919061215f565b610892565b005b61029b600480360381019061029691906123ca565b6108b2565b6040516102ac95949392919061287e565b60405180910390f35b6102cf60048036038101906102ca91906123ca565b610a90565b6040516102dc91906127b1565b60405180910390f35b6102ff60048036038101906102fa91906123ca565b610b42565b60405161030c919061285c565b60405180910390f35b61032f600480360381019061032a91906120f2565b610bf9565b60405161033c9190612b06565b60405180910390f35b61034d610cb1565b60405161035a919061285c565b60405180910390f35b61037d60048036038101906103789190612235565b610d43565b005b610399600480360381019061039491906121b2565b610ec4565b005b6103b560048036038101906103b091906123ca565b610f26565b6040516103c2919061285c565b60405180910390f35b6103e560048036038101906103e091906123ca565b611078565b6040516103f2919061285c565b60405180910390f35b6104156004803603810190610410919061211f565b61112f565b6040516104229190612841565b60405180910390f35b6104456004803603810190610440919061230f565b6111c3565b005b60007f80ac58cd000000000000000000000000000000000000000000000000000000007bffffffffffffffffffffffffffffffffffffffffffffffffffffffff1916827bffffffffffffffffffffffffffffffffffffffffffffffffffffffff1916148061051257507f5b5e139f000000000000000000000000000000000000000000000000000000007bffffffffffffffffffffffffffffffffffffffffffffffffffffffff1916827bffffffffffffffffffffffffffffffffffffffffffffffffffffffff1916145b8061052257506105218261139a565b5b9050919050565b60606000805461053890612d5c565b80601f016020809104026020016040519081016040528092919081815260200182805461056490612d5c565b80156105b15780601f10610586576101008083540402835291602001916105b1565b820191906000526020600020905b81548152906001019060200180831161059457829003601f168201915b5050505050905090565b60006105c682611404565b610605576040517f08c379a00000000000000000000000000000000000000000000000000000000081526004016105fc90612a46565b60405180910390fd5b6004600083815260200190815260200160002060009054906101000a900473ffffffffffffffffffffffffffffffffffffffff169050919050565b600061064b82610a90565b90508073ffffffffffffffffffffffffffffffffffffffff168373ffffffffffffffffffffffffffffffffffffffff1614156106bc576040517f08c379a00000000000000000000000000000000000000000000000000000000081526004016106b390612ac6565b60405180910390fd5b8073ffffffffffffffffffffffffffffffffffffffff166106db611470565b73ffffffffffffffffffffffffffffffffffffffff16148061070a575061070981610704611470565b61112f565b5b610749576040517f08c379a000000000000000000000000000000000000000000000000000000000815260040161074090612986565b60405180910390fd5b6107538383611478565b505050565b60006107648383611531565b6001905092915050565b6000600780549050905090565b61078c610786611470565b826115a5565b6107cb576040517f08c379a00000000000000000000000000000000000000000000000000000000081526004016107c290612ae6565b60405180910390fd5b6107d6838383611683565b505050565b6060600782815481106107f1576107f0612ec6565b5b9060005260206000209060050201600201805461080d90612d5c565b80601f016020809104026020016040519081016040528092919081815260200182805461083990612d5c565b80156108865780601f1061085b57610100808354040283529160200191610886565b820191906000526020600020905b81548152906001019060200180831161086957829003601f168201915b50505050509050919050565b6108ad83838360405180602001604052806000815250610ec4565b505050565b600781815481106108c257600080fd5b90600052602060002090600502016000915090508060000180546108e590612d5c565b80601f016020809104026020016040519081016040528092919081815260200182805461091190612d5c565b801561095e5780601f106109335761010080835404028352916020019161095e565b820191906000526020600020905b81548152906001019060200180831161094157829003601f168201915b50505050509080600101805461097390612d5c565b80601f016020809104026020016040519081016040528092919081815260200182805461099f90612d5c565b80156109ec5780601f106109c1576101008083540402835291602001916109ec565b820191906000526020600020905b8154815290600101906020018083116109cf57829003601f168201915b505050505090806002018054610a0190612d5c565b80601f0160208091040260200160405190810160405280929190818152602001828054610a2d90612d5c565b8015610a7a5780601f10610a4f57610100808354040283529160200191610a7a565b820191906000526020600020905b815481529060010190602001808311610a5d57829003601f168201915b5050505050908060030154908060040154905085565b6000806002600084815260200190815260200160002060009054906101000a900473ffffffffffffffffffffffffffffffffffffffff169050600073ffffffffffffffffffffffffffffffffffffffff168173ffffffffffffffffffffffffffffffffffffffff161415610b39576040517f08c379a0000000000000000000000000000000000000000000000000000000008152600401610b30906129c6565b60405180910390fd5b80915050919050565b606060078281548110610b5857610b57612ec6565b5b90600052602060002090600502016001018054610b7490612d5c565b80601f0160208091040260200160405190810160405280929190818152602001828054610ba090612d5c565b8015610bed5780601f10610bc257610100808354040283529160200191610bed565b820191906000526020600020905b815481529060010190602001808311610bd057829003601f168201915b50505050509050919050565b60008073ffffffffffffffffffffffffffffffffffffffff168273ffffffffffffffffffffffffffffffffffffffff161415610c6a576040517f08c379a0000000000000000000000000000000000000000000000000000000008152600401610c61906129a6565b60405180910390fd5b600360008373ffffffffffffffffffffffffffffffffffffffff1673ffffffffffffffffffffffffffffffffffffffff168152602001908152602001600020549050919050565b606060018054610cc090612d5c565b80601f0160208091040260200160405190810160405280929190818152602001828054610cec90612d5c565b8015610d395780601f10610d0e57610100808354040283529160200191610d39565b820191906000526020600020905b815481529060010190602001808311610d1c57829003601f168201915b5050505050905090565b610d4b611470565b73ffffffffffffffffffffffffffffffffffffffff168273ffffffffffffffffffffffffffffffffffffffff161415610db9576040517f08c379a0000000000000000000000000000000000000000000000000000000008152600401610db090612946565b60405180910390fd5b8060056000610dc6611470565b73ffffffffffffffffffffffffffffffffffffffff1673ffffffffffffffffffffffffffffffffffffffff16815260200190815260200160002060008473ffffffffffffffffffffffffffffffffffffffff1673ffffffffffffffffffffffffffffffffffffffff16815260200190815260200160002060006101000a81548160ff0219169083151502179055508173ffffffffffffffffffffffffffffffffffffffff16610e73611470565b73ffffffffffffffffffffffffffffffffffffffff167f17307eab39ab6107e8899845ad3d59bd9653f200f220920489ca2b5937696c3183604051610eb89190612841565b60405180910390a35050565b610ed5610ecf611470565b836115a5565b610f14576040517f08c379a0000000000000000000000000000000000000000000000000000000008152600401610f0b90612ae6565b60405180910390fd5b610f20848484846118df565b50505050565b6060610f3182611404565b610f70576040517f08c379a0000000000000000000000000000000000000000000000000000000008152600401610f6790612a26565b60405180910390fd5b6000600660008481526020019081526020016000208054610f9090612d5c565b80601f0160208091040260200160405190810160405280929190818152602001828054610fbc90612d5c565b80156110095780601f10610fde57610100808354040283529160200191611009565b820191906000526020600020905b815481529060010190602001808311610fec57829003601f168201915b50505050509050600061101a61193b565b9050600081511415611030578192505050611073565b60008251111561106557808260405160200161104d92919061278d565b60405160208183030381529060405292505050611073565b61106e84611952565b925050505b919050565b60606007828154811061108e5761108d612ec6565b5b906000526020600020906005020160000180546110aa90612d5c565b80601f01602080910402602001604051908101604052809291908181526020018280546110d690612d5c565b80156111235780601f106110f857610100808354040283529160200191611123565b820191906000526020600020905b81548152906001019060200180831161110657829003601f168201915b50505050509050919050565b6000600560008473ffffffffffffffffffffffffffffffffffffffff1673ffffffffffffffffffffffffffffffffffffffff16815260200190815260200160002060008373ffffffffffffffffffffffffffffffffffffffff1673ffffffffffffffffffffffffffffffffffffffff16815260200190815260200160002060009054906101000a900460ff16905092915050565b6008846040516111d39190612776565b908152602001604051809103902060009054906101000a900460ff161561122f576040517f08c379a000000000000000000000000000000000000000000000000000000000815260040161122690612aa6565b60405180910390fd5b60006007805490509050611241611ed7565b8581600001819052508481602001819052508381604001819052508281606001818152505081816080018181525050600781908060018154018082558091505060019003906000526020600020906005020160009091909190915060008201518160000190805190602001906112b8929190611f06565b5060208201518160010190805190602001906112d5929190611f06565b5060408201518160020190805190602001906112f2929190611f06565b506060820151816003015560808201518160040155505060016008826000015160405161131f9190612776565b908152602001604051809103902060006101000a81548160ff02191690831515021790555061134e33836119f9565b6113588287610758565b507f372fac516583945ba52554f7f43c94793d1faff5317a4ab4a7fbff0f11aa586f338360405161138a929190612818565b60405180910390a1505050505050565b60007f01ffc9a7000000000000000000000000000000000000000000000000000000007bffffffffffffffffffffffffffffffffffffffffffffffffffffffff1916827bffffffffffffffffffffffffffffffffffffffffffffffffffffffff1916149050919050565b60008073ffffffffffffffffffffffffffffffffffffffff166002600084815260200190815260200160002060009054906101000a900473ffffffffffffffffffffffffffffffffffffffff1673ffffffffffffffffffffffffffffffffffffffff1614159050919050565b600033905090565b816004600083815260200190815260200160002060006101000a81548173ffffffffffffffffffffffffffffffffffffffff021916908373ffffffffffffffffffffffffffffffffffffffff160217905550808273ffffffffffffffffffffffffffffffffffffffff166114eb83610a90565b73ffffffffffffffffffffffffffffffffffffffff167f8c5be1e5ebec7d5bd14f71427d1e84f3dd0314c0f7b2291e5b200ac8c7c3b92560405160405180910390a45050565b61153a82611404565b611579576040517f08c379a0000000000000000000000000000000000000000000000000000000008152600401611570906129e6565b60405180910390fd5b806006600084815260200190815260200160002090805190602001906115a0929190611f06565b505050565b60006115b082611404565b6115ef576040517f08c379a00000000000000000000000000000000000000000000000000000000081526004016115e690612966565b60405180910390fd5b60006115fa83610a90565b90508073ffffffffffffffffffffffffffffffffffffffff168473ffffffffffffffffffffffffffffffffffffffff16148061166957508373ffffffffffffffffffffffffffffffffffffffff16611651846105bb565b73ffffffffffffffffffffffffffffffffffffffff16145b8061167a5750611679818561112f565b5b91505092915050565b8273ffffffffffffffffffffffffffffffffffffffff166116a382610a90565b73ffffffffffffffffffffffffffffffffffffffff16146116f9576040517f08c379a00000000000000000000000000000000000000000000000000000000081526004016116f090612a66565b60405180910390fd5b600073ffffffffffffffffffffffffffffffffffffffff168273ffffffffffffffffffffffffffffffffffffffff161415611769576040517f08c379a000000000000000000000000000000000000000000000000000000000815260040161176090612926565b60405180910390fd5b611774838383611bc7565b61177f600082611478565b6001600360008573ffffffffffffffffffffffffffffffffffffffff1673ffffffffffffffffffffffffffffffffffffffff16815260200190815260200160002060008282546117cf9190612c72565b925050819055506001600360008473ffffffffffffffffffffffffffffffffffffffff1673ffffffffffffffffffffffffffffffffffffffff16815260200190815260200160002060008282546118269190612beb565b92505081905550816002600083815260200190815260200160002060006101000a81548173ffffffffffffffffffffffffffffffffffffffff021916908373ffffffffffffffffffffffffffffffffffffffff160217905550808273ffffffffffffffffffffffffffffffffffffffff168473ffffffffffffffffffffffffffffffffffffffff167fddf252ad1be2c89b69c2b068fc378daa952ba7f163c4a11628f55a4df523b3ef60405160405180910390a4505050565b6118ea848484611683565b6118f684848484611bcc565b611935576040517f08c379a000000000000000000000000000000000000000000000000000000000815260040161192c906128e6565b60405180910390fd5b50505050565b606060405180602001604052806000815250905090565b606061195d82611404565b61199c576040517f08c379a000000000000000000000000000000000000000000000000000000000815260040161199390612a86565b60405180910390fd5b60006119a661193b565b905060008151116119c657604051806020016040528060008152506119f1565b806119d084611d63565b6040516020016119e192919061278d565b6040516020818303038152906040525b915050919050565b600073ffffffffffffffffffffffffffffffffffffffff168273ffffffffffffffffffffffffffffffffffffffff161415611a69576040517f08c379a0000000000000000000000000000000000000000000000000000000008152600401611a6090612a06565b60405180910390fd5b611a7281611404565b15611ab2576040517f08c379a0000000000000000000000000000000000000000000000000000000008152600401611aa990612906565b60405180910390fd5b611abe60008383611bc7565b6001600360008473ffffffffffffffffffffffffffffffffffffffff1673ffffffffffffffffffffffffffffffffffffffff1681526020019081526020016000206000828254611b0e9190612beb565b92505081905550816002600083815260200190815260200160002060006101000a81548173ffffffffffffffffffffffffffffffffffffffff021916908373ffffffffffffffffffffffffffffffffffffffff160217905550808273ffffffffffffffffffffffffffffffffffffffff16600073ffffffffffffffffffffffffffffffffffffffff167fddf252ad1be2c89b69c2b068fc378daa952ba7f163c4a11628f55a4df523b3ef60405160405180910390a45050565b505050565b6000611bed8473ffffffffffffffffffffffffffffffffffffffff16611ec4565b15611d56578373ffffffffffffffffffffffffffffffffffffffff1663150b7a02611c16611470565b8786866040518563ffffffff1660e01b8152600401611c3894939291906127cc565b602060405180830381600087803b158015611c5257600080fd5b505af1925050508015611c8357506040513d601f19601f82011682018060405250810190611c8091906122e2565b60015b611d06573d8060008114611cb3576040519150601f19603f3d011682016040523d82523d6000602084013e611cb8565b606091505b50600081511415611cfe576040517f08c379a0000000000000000000000000000000000000000000000000000000008152600401611cf5906128e6565b60405180910390fd5b805181602001fd5b63150b7a0260e01b7bffffffffffffffffffffffffffffffffffffffffffffffffffffffff1916817bffffffffffffffffffffffffffffffffffffffffffffffffffffffff191614915050611d5b565b600190505b949350505050565b60606000821415611dab576040518060400160405280600181526020017f30000000000000000000000000000000000000000000000000000000000000008152509050611ebf565b600082905060005b60008214611ddd578080611dc690612dbf565b915050600a82611dd69190612c41565b9150611db3565b60008167ffffffffffffffff811115611df957611df8612ef5565b5b6040519080825280601f01601f191660200182016040528015611e2b5781602001600182028036833780820191505090505b5090505b60008514611eb857600182611e449190612c72565b9150600a85611e539190612e08565b6030611e5f9190612beb565b60f81b818381518110611e7557611e74612ec6565b5b60200101907effffffffffffffffffffffffffffffffffffffffffffffffffffffffffffff1916908160001a905350600a85611eb19190612c41565b9450611e2f565b8093505050505b919050565b600080823b905060008111915050919050565b6040518060a0016040528060608152602001606081526020016060815260200160008152602001600081525090565b828054611f1290612d5c565b90600052602060002090601f016020900481019282611f345760008555611f7b565b82601f10611f4d57805160ff1916838001178555611f7b565b82800160010185558215611f7b579182015b82811115611f7a578251825591602001919060010190611f5f565b5b509050611f889190611f8c565b5090565b5b80821115611fa5576000816000905550600101611f8d565b5090565b6000611fbc611fb784612b46565b612b21565b905082815260208101848484011115611fd857611fd7612f29565b5b611fe3848285612d1a565b509392505050565b6000611ffe611ff984612b77565b612b21565b90508281526020810184848401111561201a57612019612f29565b5b612025848285612d1a565b509392505050565b60008135905061203c816133f0565b92915050565b60008135905061205181613407565b92915050565b6000813590506120668161341e565b92915050565b60008151905061207b8161341e565b92915050565b600082601f83011261209657612095612f24565b5b81356120a6848260208601611fa9565b91505092915050565b600082601f8301126120c4576120c3612f24565b5b81356120d4848260208601611feb565b91505092915050565b6000813590506120ec81613435565b92915050565b60006020828403121561210857612107612f33565b5b60006121168482850161202d565b91505092915050565b6000806040838503121561213657612135612f33565b5b60006121448582860161202d565b92505060206121558582860161202d565b9150509250929050565b60008060006060848603121561217857612177612f33565b5b60006121868682870161202d565b93505060206121978682870161202d565b92505060406121a8868287016120dd565b9150509250925092565b600080600080608085870312156121cc576121cb612f33565b5b60006121da8782880161202d565b94505060206121eb8782880161202d565b93505060406121fc878288016120dd565b925050606085013567ffffffffffffffff81111561221d5761221c612f2e565b5b61222987828801612081565b91505092959194509250565b6000806040838503121561224c5761224b612f33565b5b600061225a8582860161202d565b925050602061226b85828601612042565b9150509250929050565b6000806040838503121561228c5761228b612f33565b5b600061229a8582860161202d565b92505060206122ab858286016120dd565b9150509250929050565b6000602082840312156122cb576122ca612f33565b5b60006122d984828501612057565b91505092915050565b6000602082840312156122f8576122f7612f33565b5b60006123068482850161206c565b91505092915050565b6000806000806080858703121561232957612328612f33565b5b600085013567ffffffffffffffff81111561234757612346612f2e565b5b612353878288016120af565b945050602085013567ffffffffffffffff81111561237457612373612f2e565b5b612380878288016120af565b935050604085013567ffffffffffffffff8111156123a1576123a0612f2e565b5b6123ad878288016120af565b92505060606123be878288016120dd565b91505092959194509250565b6000602082840312156123e0576123df612f33565b5b60006123ee848285016120dd565b91505092915050565b6000806040838503121561240e5761240d612f33565b5b600061241c858286016120dd565b925050602083013567ffffffffffffffff81111561243d5761243c612f2e565b5b612449858286016120af565b9150509250929050565b61245c81612ca6565b82525050565b61246b81612cb8565b82525050565b600061247c82612ba8565b6124868185612bbe565b9350612496818560208601612d29565b61249f81612f38565b840191505092915050565b60006124b582612bb3565b6124bf8185612bcf565b93506124cf818560208601612d29565b6124d881612f38565b840191505092915050565b60006124ee82612bb3565b6124f88185612be0565b9350612508818560208601612d29565b80840191505092915050565b6000612521603283612bcf565b915061252c82612f49565b604082019050919050565b6000612544601c83612bcf565b915061254f82612f98565b602082019050919050565b6000612567602483612bcf565b915061257282612fc1565b604082019050919050565b600061258a601983612bcf565b915061259582613010565b602082019050919050565b60006125ad602c83612bcf565b91506125b882613039565b604082019050919050565b60006125d0603883612bcf565b91506125db82613088565b604082019050919050565b60006125f3602a83612bcf565b91506125fe826130d7565b604082019050919050565b6000612616602983612bcf565b915061262182613126565b604082019050919050565b6000612639602e83612bcf565b915061264482613175565b604082019050919050565b600061265c602083612bcf565b9150612667826131c4565b602082019050919050565b600061267f603183612bcf565b915061268a826131ed565b604082019050919050565b60006126a2602c83612bcf565b91506126ad8261323c565b604082019050919050565b60006126c5602983612bcf565b91506126d08261328b565b604082019050919050565b60006126e8602f83612bcf565b91506126f3826132da565b604082019050919050565b600061270b601c83612bcf565b915061271682613329565b602082019050919050565b600061272e602183612bcf565b915061273982613352565b604082019050919050565b6000612751603183612bcf565b915061275c826133a1565b604082019050919050565b61277081612d10565b82525050565b600061278282846124e3565b915081905092915050565b600061279982856124e3565b91506127a582846124e3565b91508190509392505050565b60006020820190506127c66000830184612453565b92915050565b60006080820190506127e16000830187612453565b6127ee6020830186612453565b6127fb6040830185612767565b818103606083015261280d8184612471565b905095945050505050565b600060408201905061282d6000830185612453565b61283a6020830184612767565b9392505050565b60006020820190506128566000830184612462565b92915050565b6000602082019050818103600083015261287681846124aa565b905092915050565b600060a082019050818103600083015261289881886124aa565b905081810360208301526128ac81876124aa565b905081810360408301526128c081866124aa565b90506128cf6060830185612767565b6128dc6080830184612767565b9695505050505050565b600060208201905081810360008301526128ff81612514565b9050919050565b6000602082019050818103600083015261291f81612537565b9050919050565b6000602082019050818103600083015261293f8161255a565b9050919050565b6000602082019050818103600083015261295f8161257d565b9050919050565b6000602082019050818103600083015261297f816125a0565b9050919050565b6000602082019050818103600083015261299f816125c3565b9050919050565b600060208201905081810360008301526129bf816125e6565b9050919050565b600060208201905081810360008301526129df81612609565b9050919050565b600060208201905081810360008301526129ff8161262c565b9050919050565b60006020820190508181036000830152612a1f8161264f565b9050919050565b60006020820190508181036000830152612a3f81612672565b9050919050565b60006020820190508181036000830152612a5f81612695565b9050919050565b60006020820190508181036000830152612a7f816126b8565b9050919050565b60006020820190508181036000830152612a9f816126db565b9050919050565b60006020820190508181036000830152612abf816126fe565b9050919050565b60006020820190508181036000830152612adf81612721565b9050919050565b60006020820190508181036000830152612aff81612744565b9050919050565b6000602082019050612b1b6000830184612767565b92915050565b6000612b2b612b3c565b9050612b378282612d8e565b919050565b6000604051905090565b600067ffffffffffffffff821115612b6157612b60612ef5565b5b612b6a82612f38565b9050602081019050919050565b600067ffffffffffffffff821115612b9257612b91612ef5565b5b612b9b82612f38565b9050602081019050919050565b600081519050919050565b600081519050919050565b600082825260208201905092915050565b600082825260208201905092915050565b600081905092915050565b6000612bf682612d10565b9150612c0183612d10565b9250827fffffffffffffffffffffffffffffffffffffffffffffffffffffffffffffffff03821115612c3657612c35612e39565b5b828201905092915050565b6000612c4c82612d10565b9150612c5783612d10565b925082612c6757612c66612e68565b5b828204905092915050565b6000612c7d82612d10565b9150612c8883612d10565b925082821015612c9b57612c9a612e39565b5b828203905092915050565b6000612cb182612cf0565b9050919050565b60008115159050919050565b60007fffffffff0000000000000000000000000000000000000000000000000000000082169050919050565b600073ffffffffffffffffffffffffffffffffffffffff82169050919050565b6000819050919050565b82818337600083830152505050565b60005b83811015612d47578082015181840152602081019050612d2c565b83811115612d56576000848401525b50505050565b60006002820490506001821680612d7457607f821691505b60208210811415612d8857612d87612e97565b5b50919050565b612d9782612f38565b810181811067ffffffffffffffff82111715612db657612db5612ef5565b5b80604052505050565b6000612dca82612d10565b91507fffffffffffffffffffffffffffffffffffffffffffffffffffffffffffffffff821415612dfd57612dfc612e39565b5b600182019050919050565b6000612e1382612d10565b9150612e1e83612d10565b925082612e2e57612e2d612e68565b5b828206905092915050565b7f4e487b7100000000000000000000000000000000000000000000000000000000600052601160045260246000fd5b7f4e487b7100000000000000000000000000000000000000000000000000000000600052601260045260246000fd5b7f4e487b7100000000000000000000000000000000000000000000000000000000600052602260045260246000fd5b7f4e487b7100000000000000000000000000000000000000000000000000000000600052603260045260246000fd5b7f4e487b7100000000000000000000000000000000000000000000000000000000600052604160045260246000fd5b600080fd5b600080fd5b600080fd5b600080fd5b6000601f19601f8301169050919050565b7f4552433732313a207472616e7366657220746f206e6f6e20455243373231526560008201527f63656976657220696d706c656d656e7465720000000000000000000000000000602082015250565b7f4552433732313a20746f6b656e20616c7265616479206d696e74656400000000600082015250565b7f4552433732313a207472616e7366657220746f20746865207a65726f2061646460008201527f7265737300000000000000000000000000000000000000000000000000000000602082015250565b7f4552433732313a20617070726f766520746f2063616c6c657200000000000000600082015250565b7f4552433732313a206f70657261746f7220717565727920666f72206e6f6e657860008201527f697374656e7420746f6b656e0000000000000000000000000000000000000000602082015250565b7f4552433732313a20617070726f76652063616c6c6572206973206e6f74206f7760008201527f6e6572206e6f7220617070726f76656420666f7220616c6c0000000000000000602082015250565b7f4552433732313a2062616c616e636520717565727920666f7220746865207a6560008201527f726f206164647265737300000000000000000000000000000000000000000000602082015250565b7f4552433732313a206f776e657220717565727920666f72206e6f6e657869737460008201527f656e7420746f6b656e0000000000000000000000000000000000000000000000602082015250565b7f45524337323155524953746f726167653a2055524920736574206f66206e6f6e60008201527f6578697374656e7420746f6b656e000000000000000000000000000000000000602082015250565b7f4552433732313a206d696e7420746f20746865207a65726f2061646472657373600082015250565b7f45524337323155524953746f726167653a2055524920717565727920666f722060008201527f6e6f6e6578697374656e7420746f6b656e000000000000000000000000000000602082015250565b7f4552433732313a20617070726f76656420717565727920666f72206e6f6e657860008201527f697374656e7420746f6b656e0000000000000000000000000000000000000000602082015250565b7f4552433732313a207472616e73666572206f6620746f6b656e2074686174206960008201527f73206e6f74206f776e0000000000000000000000000000000000000000000000602082015250565b7f4552433732314d657461646174613a2055524920717565727920666f72206e6f60008201527f6e6578697374656e7420746f6b656e0000000000000000000000000000000000602082015250565b7f54686572652063616e27742062652074776f2073616d65204e46547300000000600082015250565b7f4552433732313a20617070726f76616c20746f2063757272656e74206f776e6560008201527f7200000000000000000000000000000000000000000000000000000000000000602082015250565b7f4552433732313a207472616e736665722063616c6c6572206973206e6f74206f60008201527f776e6572206e6f7220617070726f766564000000000000000000000000000000602082015250565b6133f981612ca6565b811461340457600080fd5b50565b61341081612cb8565b811461341b57600080fd5b50565b61342781612cc4565b811461343257600080fd5b50565b61343e81612d10565b811461344957600080fd5b5056fea264697066735822122044d5295c500b9c9c48398e72691ec86e6f306e52bf20205ee7740004688b31db64736f6c63430008060033",
  "immutableReferences": {},
  "source": "pragma solidity ^0.8.0;\r\n\r\nimport \"@openzeppelin/contracts/token/ERC721/extensions/ERC721URIStorage.sol\";\r\n\r\ncontract NFT is ERC721URIStorage {\r\n\r\n    struct Item{\r\n        string uri;\r\n        string itemName;\r\n        string itemDesc;\r\n        uint256 auctionPrice;\r\n        uint256 Id;\r\n    }\r\n\r\n    Item[] public nftImages;\r\n    mapping(string => bool) _nftExists;\r\n\r\n   constructor(string memory _name, string memory _symbol)  ERC721(_name, _symbol){}\r\n\r\n    /*\r\n    When an NFT is registered an event is triggered\r\n    which shows which NFT has been registered\r\n    _by represents the who registered the NFT\r\n    _tokenId represents the specific NFT \r\n    */\r\n    event NFTRegistered(address _by, uint256 _tokenId);\r\n\r\n    /*\r\n    registerNFT is a public function used to register an NFT\r\n    it uses _mint function of the ERC721 token\r\n    _tokenId will represent an NFT and _uri will contain metadata\r\n    */\r\n    function registerNFT(string memory _uri, string memory _name, string memory _desc, uint256  _price) public {\r\n        require(!_nftExists[_uri], \"There can't be two same NFTs\");\r\n\r\n        uint256 _tokenId = nftImages.length;\r\n\r\n        Item memory newItem;\r\n        newItem.uri = _uri;\r\n        newItem.itemName = _name;\r\n        newItem.itemDesc = _desc;\r\n        newItem.auctionPrice = _price;\r\n        newItem.Id = _tokenId;\r\n\r\n        nftImages.push(newItem);\r\n\r\n\r\n        _nftExists[newItem.uri] = true;\r\n\r\n       _mint(msg.sender, _tokenId);\r\n       addNFTMetadata(_tokenId, _uri);\r\n       \r\n       emit NFTRegistered(msg.sender, _tokenId);\r\n    } \r\n\r\n\r\n    function  addNFTMetadata(uint256 _tokenId, string memory _uri) public returns(bool){\r\n        _setTokenURI(_tokenId, _uri);\r\n        return true;\r\n    }\r\n\r\n    function getUri(uint256 _tokenId) public view returns(string memory){\r\n        return nftImages[_tokenId].uri;\r\n    }\r\n\r\n    function getName(uint256 _tokenId) public view returns(string memory){\r\n        return nftImages[_tokenId].itemName;\r\n    }\r\n\r\n    function getDesc(uint256 _tokenId) public view returns(string memory){\r\n        return nftImages[_tokenId].itemDesc;\r\n    }\r\n\r\n\r\n\r\n    function totalSupply() public view returns (uint){\r\n        return nftImages.length;\r\n    }\r\n\r\n}",
  "sourcePath": "D:/nft/src/contracts/NFT.sol",
  "compiler": {
    "name": "solc",
    "version": "0.8.6+commit.11564f7e.Emscripten.clang"
  },
  "schemaVersion": "3.4.1",
  "updatedAt": "2021-07-11T15:34:54.160Z",
  "networkType": "ethereum",
  "devdoc": {
    "kind": "dev",
    "methods": {
      "approve(address,uint256)": {
        "details": "See {IERC721-approve}."
      },
      "balanceOf(address)": {
        "details": "See {IERC721-balanceOf}."
      },
      "getApproved(uint256)": {
        "details": "See {IERC721-getApproved}."
      },
      "isApprovedForAll(address,address)": {
        "details": "See {IERC721-isApprovedForAll}."
      },
      "name()": {
        "details": "See {IERC721Metadata-name}."
      },
      "ownerOf(uint256)": {
        "details": "See {IERC721-ownerOf}."
      },
      "safeTransferFrom(address,address,uint256)": {
        "details": "See {IERC721-safeTransferFrom}."
      },
      "safeTransferFrom(address,address,uint256,bytes)": {
        "details": "See {IERC721-safeTransferFrom}."
      },
      "setApprovalForAll(address,bool)": {
        "details": "See {IERC721-setApprovalForAll}."
      },
      "supportsInterface(bytes4)": {
        "details": "See {IERC165-supportsInterface}."
      },
      "symbol()": {
        "details": "See {IERC721Metadata-symbol}."
      },
      "tokenURI(uint256)": {
        "details": "See {IERC721Metadata-tokenURI}."
      },
      "transferFrom(address,address,uint256)": {
        "details": "See {IERC721-transferFrom}."
      }
    },
    "version": 1
  },
  "userdoc": {
    "kind": "user",
    "methods": {},
    "version": 1
  }
}