{
  "contractName": "NFT",
  "abi": [
    {
      "inputs": [
        {
          "internalType": "string",
          "name": "_name",
          "type": "string"
        },
        {
          "internalType": "string",
          "name": "_symbol",
          "type": "string"
        }
      ],
      "stateMutability": "nonpayable",
      "type": "constructor"
    },
    {
      "anonymous": false,
      "inputs": [
        {
          "indexed": true,
          "internalType": "address",
          "name": "owner",
          "type": "address"
        },
        {
          "indexed": true,
          "internalType": "address",
          "name": "approved",
          "type": "address"
        },
        {
          "indexed": true,
          "internalType": "uint256",
          "name": "tokenId",
          "type": "uint256"
        }
      ],
      "name": "Approval",
      "type": "event"
    },
    {
      "anonymous": false,
      "inputs": [
        {
          "indexed": true,
          "internalType": "address",
          "name": "owner",
          "type": "address"
        },
        {
          "indexed": true,
          "internalType": "address",
          "name": "operator",
          "type": "address"
        },
        {
          "indexed": false,
          "internalType": "bool",
          "name": "approved",
          "type": "bool"
        }
      ],
      "name": "ApprovalForAll",
      "type": "event"
    },
    {
      "anonymous": false,
      "inputs": [
        {
          "indexed": false,
          "internalType": "address",
          "name": "_by",
          "type": "address"
        },
        {
          "indexed": false,
          "internalType": "uint256",
          "name": "_tokenId",
          "type": "uint256"
        }
      ],
      "name": "NFTRegistered",
      "type": "event"
    },
    {
      "anonymous": false,
      "inputs": [
        {
          "indexed": true,
          "internalType": "address",
          "name": "from",
          "type": "address"
        },
        {
          "indexed": true,
          "internalType": "address",
          "name": "to",
          "type": "address"
        },
        {
          "indexed": true,
          "internalType": "uint256",
          "name": "tokenId",
          "type": "uint256"
        }
      ],
      "name": "Transfer",
      "type": "event"
    },
    {
      "inputs": [
        {
          "internalType": "address",
          "name": "to",
          "type": "address"
        },
        {
          "internalType": "uint256",
          "name": "tokenId",
          "type": "uint256"
        }
      ],
      "name": "approve",
      "outputs": [],
      "stateMutability": "nonpayable",
      "type": "function"
    },
    {
      "inputs": [
        {
          "internalType": "address",
          "name": "owner",
          "type": "address"
        }
      ],
      "name": "balanceOf",
      "outputs": [
        {
          "internalType": "uint256",
          "name": "",
          "type": "uint256"
        }
      ],
      "stateMutability": "view",
      "type": "function",
      "constant": true
    },
    {
      "inputs": [
        {
          "internalType": "uint256",
          "name": "tokenId",
          "type": "uint256"
        }
      ],
      "name": "getApproved",
      "outputs": [
        {
          "internalType": "address",
          "name": "",
          "type": "address"
        }
      ],
      "stateMutability": "view",
      "type": "function",
      "constant": true
    },
    {
      "inputs": [
        {
          "internalType": "address",
          "name": "owner",
          "type": "address"
        },
        {
          "internalType": "address",
          "name": "operator",
          "type": "address"
        }
      ],
      "name": "isApprovedForAll",
      "outputs": [
        {
          "internalType": "bool",
          "name": "",
          "type": "bool"
        }
      ],
      "stateMutability": "view",
      "type": "function",
      "constant": true
    },
    {
      "inputs": [],
      "name": "name",
      "outputs": [
        {
          "internalType": "string",
          "name": "",
          "type": "string"
        }
      ],
      "stateMutability": "view",
      "type": "function",
      "constant": true
    },
    {
      "inputs": [
        {
          "internalType": "uint256",
          "name": "tokenId",
          "type": "uint256"
        }
      ],
      "name": "ownerOf",
      "outputs": [
        {
          "internalType": "address",
          "name": "",
          "type": "address"
        }
      ],
      "stateMutability": "view",
      "type": "function",
      "constant": true
    },
    {
      "inputs": [
        {
          "internalType": "address",
          "name": "from",
          "type": "address"
        },
        {
          "internalType": "address",
          "name": "to",
          "type": "address"
        },
        {
          "internalType": "uint256",
          "name": "tokenId",
          "type": "uint256"
        }
      ],
      "name": "safeTransferFrom",
      "outputs": [],
      "stateMutability": "nonpayable",
      "type": "function"
    },
    {
      "inputs": [
        {
          "internalType": "address",
          "name": "from",
          "type": "address"
        },
        {
          "internalType": "address",
          "name": "to",
          "type": "address"
        },
        {
          "internalType": "uint256",
          "name": "tokenId",
          "type": "uint256"
        },
        {
          "internalType": "bytes",
          "name": "_data",
          "type": "bytes"
        }
      ],
      "name": "safeTransferFrom",
      "outputs": [],
      "stateMutability": "nonpayable",
      "type": "function"
    },
    {
      "inputs": [
        {
          "internalType": "address",
          "name": "operator",
          "type": "address"
        },
        {
          "internalType": "bool",
          "name": "approved",
          "type": "bool"
        }
      ],
      "name": "setApprovalForAll",
      "outputs": [],
      "stateMutability": "nonpayable",
      "type": "function"
    },
    {
      "inputs": [
        {
          "internalType": "bytes4",
          "name": "interfaceId",
          "type": "bytes4"
        }
      ],
      "name": "supportsInterface",
      "outputs": [
        {
          "internalType": "bool",
          "name": "",
          "type": "bool"
        }
      ],
      "stateMutability": "view",
      "type": "function",
      "constant": true
    },
    {
      "inputs": [],
      "name": "symbol",
      "outputs": [
        {
          "internalType": "string",
          "name": "",
          "type": "string"
        }
      ],
      "stateMutability": "view",
      "type": "function",
      "constant": true
    },
    {
      "inputs": [
        {
          "internalType": "uint256",
          "name": "tokenId",
          "type": "uint256"
        }
      ],
      "name": "tokenURI",
      "outputs": [
        {
          "internalType": "string",
          "name": "",
          "type": "string"
        }
      ],
      "stateMutability": "view",
      "type": "function",
      "constant": true
    },
    {
      "inputs": [
        {
          "internalType": "address",
          "name": "from",
          "type": "address"
        },
        {
          "internalType": "address",
          "name": "to",
          "type": "address"
        },
        {
          "internalType": "uint256",
          "name": "tokenId",
          "type": "uint256"
        }
      ],
      "name": "transferFrom",
      "outputs": [],
      "stateMutability": "nonpayable",
      "type": "function"
    },
    {
      "inputs": [
        {
          "internalType": "uint256",
          "name": "_tokenId",
          "type": "uint256"
        },
        {
          "internalType": "string",
          "name": "_uri",
          "type": "string"
        }
      ],
      "name": "registerNFT",
      "outputs": [],
      "stateMutability": "nonpayable",
      "type": "function"
    },
    {
      "inputs": [
        {
          "internalType": "uint256",
          "name": "_tokenId",
          "type": "uint256"
        },
        {
          "internalType": "string",
          "name": "_uri",
          "type": "string"
        }
      ],
      "name": "addNFTMetadata",
      "outputs": [
        {
          "internalType": "bool",
          "name": "",
          "type": "bool"
        }
      ],
      "stateMutability": "nonpayable",
      "type": "function"
    }
  ],
  "bytecode": "0x60806040523480156200001157600080fd5b5060405162002fbb38038062002fbb8339818101604052810190620000379190620001a3565b818181600090805190602001906200005192919062000075565b5080600190805190602001906200006a92919062000075565b5050505050620003ac565b8280546200008390620002bd565b90600052602060002090601f016020900481019282620000a75760008555620000f3565b82601f10620000c257805160ff1916838001178555620000f3565b82800160010185558215620000f3579182015b82811115620000f2578251825591602001919060010190620000d5565b5b50905062000102919062000106565b5090565b5b808211156200012157600081600090555060010162000107565b5090565b60006200013c620001368462000251565b62000228565b9050828152602081018484840111156200015b576200015a6200038c565b5b6200016884828562000287565b509392505050565b600082601f83011262000188576200018762000387565b5b81516200019a84826020860162000125565b91505092915050565b60008060408385031215620001bd57620001bc62000396565b5b600083015167ffffffffffffffff811115620001de57620001dd62000391565b5b620001ec8582860162000170565b925050602083015167ffffffffffffffff81111562000210576200020f62000391565b5b6200021e8582860162000170565b9150509250929050565b60006200023462000247565b9050620002428282620002f3565b919050565b6000604051905090565b600067ffffffffffffffff8211156200026f576200026e62000358565b5b6200027a826200039b565b9050602081019050919050565b60005b83811015620002a75780820151818401526020810190506200028a565b83811115620002b7576000848401525b50505050565b60006002820490506001821680620002d657607f821691505b60208210811415620002ed57620002ec62000329565b5b50919050565b620002fe826200039b565b810181811067ffffffffffffffff8211171562000320576200031f62000358565b5b80604052505050565b7f4e487b7100000000000000000000000000000000000000000000000000000000600052602260045260246000fd5b7f4e487b7100000000000000000000000000000000000000000000000000000000600052604160045260246000fd5b600080fd5b600080fd5b600080fd5b600080fd5b6000601f19601f8301169050919050565b612bff80620003bc6000396000f3fe608060405234801561001057600080fd5b50600436106100f55760003560e01c80636352211e11610097578063b88d4fde11610066578063b88d4fde14610296578063c87b56dd146102b2578063e985e9c5146102e2578063fc414d0e14610312576100f5565b80636352211e146101fc57806370a082311461022c57806395d89b411461025c578063a22cb4651461027a576100f5565b8063095ea7b3116100d3578063095ea7b3146101785780630d3986a01461019457806323b872dd146101c457806342842e0e146101e0576100f5565b806301ffc9a7146100fa57806306fdde031461012a578063081812fc14610148575b600080fd5b610114600480360381019061010f9190611bd8565b61032e565b604051610121919061206f565b60405180910390f35b610132610410565b60405161013f919061208a565b60405180910390f35b610162600480360381019061015d9190611c32565b6104a2565b60405161016f9190611fdf565b60405180910390f35b610192600480360381019061018d9190611b98565b610527565b005b6101ae60048036038101906101a99190611c5f565b61063f565b6040516101bb919061206f565b60405180910390f35b6101de60048036038101906101d99190611a82565b610655565b005b6101fa60048036038101906101f59190611a82565b6106b5565b005b61021660048036038101906102119190611c32565b6106d5565b6040516102239190611fdf565b60405180910390f35b61024660048036038101906102419190611a15565b610787565b60405161025391906122ac565b60405180910390f35b61026461083f565b604051610271919061208a565b60405180910390f35b610294600480360381019061028f9190611b58565b6108d1565b005b6102b060048036038101906102ab9190611ad5565b610a52565b005b6102cc60048036038101906102c79190611c32565b610ab4565b6040516102d9919061208a565b60405180910390f35b6102fc60048036038101906102f79190611a42565b610c06565b604051610309919061206f565b60405180910390f35b61032c60048036038101906103279190611c5f565b610c9a565b005b60007f80ac58cd000000000000000000000000000000000000000000000000000000007bffffffffffffffffffffffffffffffffffffffffffffffffffffffff1916827bffffffffffffffffffffffffffffffffffffffffffffffffffffffff191614806103f957507f5b5e139f000000000000000000000000000000000000000000000000000000007bffffffffffffffffffffffffffffffffffffffffffffffffffffffff1916827bffffffffffffffffffffffffffffffffffffffffffffffffffffffff1916145b80610409575061040882610cec565b5b9050919050565b60606000805461041f90612502565b80601f016020809104026020016040519081016040528092919081815260200182805461044b90612502565b80156104985780601f1061046d57610100808354040283529160200191610498565b820191906000526020600020905b81548152906001019060200180831161047b57829003601f168201915b5050505050905090565b60006104ad82610d56565b6104ec576040517f08c379a00000000000000000000000000000000000000000000000000000000081526004016104e39061220c565b60405180910390fd5b6004600083815260200190815260200160002060009054906101000a900473ffffffffffffffffffffffffffffffffffffffff169050919050565b6000610532826106d5565b90508073ffffffffffffffffffffffffffffffffffffffff168373ffffffffffffffffffffffffffffffffffffffff1614156105a3576040517f08c379a000000000000000000000000000000000000000000000000000000000815260040161059a9061226c565b60405180910390fd5b8073ffffffffffffffffffffffffffffffffffffffff166105c2610dc2565b73ffffffffffffffffffffffffffffffffffffffff1614806105f157506105f0816105eb610dc2565b610c06565b5b610630576040517f08c379a00000000000000000000000000000000000000000000000000000000081526004016106279061214c565b60405180910390fd5b61063a8383610dca565b505050565b600061064b8383610e83565b6001905092915050565b610666610660610dc2565b82610ef7565b6106a5576040517f08c379a000000000000000000000000000000000000000000000000000000000815260040161069c9061228c565b60405180910390fd5b6106b0838383610fd5565b505050565b6106d083838360405180602001604052806000815250610a52565b505050565b6000806002600084815260200190815260200160002060009054906101000a900473ffffffffffffffffffffffffffffffffffffffff169050600073ffffffffffffffffffffffffffffffffffffffff168173ffffffffffffffffffffffffffffffffffffffff16141561077e576040517f08c379a00000000000000000000000000000000000000000000000000000000081526004016107759061218c565b60405180910390fd5b80915050919050565b60008073ffffffffffffffffffffffffffffffffffffffff168273ffffffffffffffffffffffffffffffffffffffff1614156107f8576040517f08c379a00000000000000000000000000000000000000000000000000000000081526004016107ef9061216c565b60405180910390fd5b600360008373ffffffffffffffffffffffffffffffffffffffff1673ffffffffffffffffffffffffffffffffffffffff168152602001908152602001600020549050919050565b60606001805461084e90612502565b80601f016020809104026020016040519081016040528092919081815260200182805461087a90612502565b80156108c75780601f1061089c576101008083540402835291602001916108c7565b820191906000526020600020905b8154815290600101906020018083116108aa57829003601f168201915b5050505050905090565b6108d9610dc2565b73ffffffffffffffffffffffffffffffffffffffff168273ffffffffffffffffffffffffffffffffffffffff161415610947576040517f08c379a000000000000000000000000000000000000000000000000000000000815260040161093e9061210c565b60405180910390fd5b8060056000610954610dc2565b73ffffffffffffffffffffffffffffffffffffffff1673ffffffffffffffffffffffffffffffffffffffff16815260200190815260200160002060008473ffffffffffffffffffffffffffffffffffffffff1673ffffffffffffffffffffffffffffffffffffffff16815260200190815260200160002060006101000a81548160ff0219169083151502179055508173ffffffffffffffffffffffffffffffffffffffff16610a01610dc2565b73ffffffffffffffffffffffffffffffffffffffff167f17307eab39ab6107e8899845ad3d59bd9653f200f220920489ca2b5937696c3183604051610a46919061206f565b60405180910390a35050565b610a63610a5d610dc2565b83610ef7565b610aa2576040517f08c379a0000000000000000000000000000000000000000000000000000000008152600401610a999061228c565b60405180910390fd5b610aae84848484611231565b50505050565b6060610abf82610d56565b610afe576040517f08c379a0000000000000000000000000000000000000000000000000000000008152600401610af5906121ec565b60405180910390fd5b6000600660008481526020019081526020016000208054610b1e90612502565b80601f0160208091040260200160405190810160405280929190818152602001828054610b4a90612502565b8015610b975780601f10610b6c57610100808354040283529160200191610b97565b820191906000526020600020905b815481529060010190602001808311610b7a57829003601f168201915b505050505090506000610ba861128d565b9050600081511415610bbe578192505050610c01565b600082511115610bf3578082604051602001610bdb929190611fbb565b60405160208183030381529060405292505050610c01565b610bfc846112a4565b925050505b919050565b6000600560008473ffffffffffffffffffffffffffffffffffffffff1673ffffffffffffffffffffffffffffffffffffffff16815260200190815260200160002060008373ffffffffffffffffffffffffffffffffffffffff1673ffffffffffffffffffffffffffffffffffffffff16815260200190815260200160002060009054906101000a900460ff16905092915050565b610ca4338361134b565b610cae828261063f565b507f372fac516583945ba52554f7f43c94793d1faff5317a4ab4a7fbff0f11aa586f3383604051610ce0929190612046565b60405180910390a15050565b60007f01ffc9a7000000000000000000000000000000000000000000000000000000007bffffffffffffffffffffffffffffffffffffffffffffffffffffffff1916827bffffffffffffffffffffffffffffffffffffffffffffffffffffffff1916149050919050565b60008073ffffffffffffffffffffffffffffffffffffffff166002600084815260200190815260200160002060009054906101000a900473ffffffffffffffffffffffffffffffffffffffff1673ffffffffffffffffffffffffffffffffffffffff1614159050919050565b600033905090565b816004600083815260200190815260200160002060006101000a81548173ffffffffffffffffffffffffffffffffffffffff021916908373ffffffffffffffffffffffffffffffffffffffff160217905550808273ffffffffffffffffffffffffffffffffffffffff16610e3d836106d5565b73ffffffffffffffffffffffffffffffffffffffff167f8c5be1e5ebec7d5bd14f71427d1e84f3dd0314c0f7b2291e5b200ac8c7c3b92560405160405180910390a45050565b610e8c82610d56565b610ecb576040517f08c379a0000000000000000000000000000000000000000000000000000000008152600401610ec2906121ac565b60405180910390fd5b80600660008481526020019081526020016000209080519060200190610ef2929190611829565b505050565b6000610f0282610d56565b610f41576040517f08c379a0000000000000000000000000000000000000000000000000000000008152600401610f389061212c565b60405180910390fd5b6000610f4c836106d5565b90508073ffffffffffffffffffffffffffffffffffffffff168473ffffffffffffffffffffffffffffffffffffffff161480610fbb57508373ffffffffffffffffffffffffffffffffffffffff16610fa3846104a2565b73ffffffffffffffffffffffffffffffffffffffff16145b80610fcc5750610fcb8185610c06565b5b91505092915050565b8273ffffffffffffffffffffffffffffffffffffffff16610ff5826106d5565b73ffffffffffffffffffffffffffffffffffffffff161461104b576040517f08c379a00000000000000000000000000000000000000000000000000000000081526004016110429061222c565b60405180910390fd5b600073ffffffffffffffffffffffffffffffffffffffff168273ffffffffffffffffffffffffffffffffffffffff1614156110bb576040517f08c379a00000000000000000000000000000000000000000000000000000000081526004016110b2906120ec565b60405180910390fd5b6110c6838383611519565b6110d1600082610dca565b6001600360008573ffffffffffffffffffffffffffffffffffffffff1673ffffffffffffffffffffffffffffffffffffffff16815260200190815260200160002060008282546111219190612418565b925050819055506001600360008473ffffffffffffffffffffffffffffffffffffffff1673ffffffffffffffffffffffffffffffffffffffff16815260200190815260200160002060008282546111789190612391565b92505081905550816002600083815260200190815260200160002060006101000a81548173ffffffffffffffffffffffffffffffffffffffff021916908373ffffffffffffffffffffffffffffffffffffffff160217905550808273ffffffffffffffffffffffffffffffffffffffff168473ffffffffffffffffffffffffffffffffffffffff167fddf252ad1be2c89b69c2b068fc378daa952ba7f163c4a11628f55a4df523b3ef60405160405180910390a4505050565b61123c848484610fd5565b6112488484848461151e565b611287576040517f08c379a000000000000000000000000000000000000000000000000000000000815260040161127e906120ac565b60405180910390fd5b50505050565b606060405180602001604052806000815250905090565b60606112af82610d56565b6112ee576040517f08c379a00000000000000000000000000000000000000000000000000000000081526004016112e59061224c565b60405180910390fd5b60006112f861128d565b905060008151116113185760405180602001604052806000815250611343565b80611322846116b5565b604051602001611333929190611fbb565b6040516020818303038152906040525b915050919050565b600073ffffffffffffffffffffffffffffffffffffffff168273ffffffffffffffffffffffffffffffffffffffff1614156113bb576040517f08c379a00000000000000000000000000000000000000000000000000000000081526004016113b2906121cc565b60405180910390fd5b6113c481610d56565b15611404576040517f08c379a00000000000000000000000000000000000000000000000000000000081526004016113fb906120cc565b60405180910390fd5b61141060008383611519565b6001600360008473ffffffffffffffffffffffffffffffffffffffff1673ffffffffffffffffffffffffffffffffffffffff16815260200190815260200160002060008282546114609190612391565b92505081905550816002600083815260200190815260200160002060006101000a81548173ffffffffffffffffffffffffffffffffffffffff021916908373ffffffffffffffffffffffffffffffffffffffff160217905550808273ffffffffffffffffffffffffffffffffffffffff16600073ffffffffffffffffffffffffffffffffffffffff167fddf252ad1be2c89b69c2b068fc378daa952ba7f163c4a11628f55a4df523b3ef60405160405180910390a45050565b505050565b600061153f8473ffffffffffffffffffffffffffffffffffffffff16611816565b156116a8578373ffffffffffffffffffffffffffffffffffffffff1663150b7a02611568610dc2565b8786866040518563ffffffff1660e01b815260040161158a9493929190611ffa565b602060405180830381600087803b1580156115a457600080fd5b505af19250505080156115d557506040513d601f19601f820116820180604052508101906115d29190611c05565b60015b611658573d8060008114611605576040519150601f19603f3d011682016040523d82523d6000602084013e61160a565b606091505b50600081511415611650576040517f08c379a0000000000000000000000000000000000000000000000000000000008152600401611647906120ac565b60405180910390fd5b805181602001fd5b63150b7a0260e01b7bffffffffffffffffffffffffffffffffffffffffffffffffffffffff1916817bffffffffffffffffffffffffffffffffffffffffffffffffffffffff1916149150506116ad565b600190505b949350505050565b606060008214156116fd576040518060400160405280600181526020017f30000000000000000000000000000000000000000000000000000000000000008152509050611811565b600082905060005b6000821461172f57808061171890612565565b915050600a8261172891906123e7565b9150611705565b60008167ffffffffffffffff81111561174b5761174a61269b565b5b6040519080825280601f01601f19166020018201604052801561177d5781602001600182028036833780820191505090505b5090505b6000851461180a576001826117969190612418565b9150600a856117a591906125ae565b60306117b19190612391565b60f81b8183815181106117c7576117c661266c565b5b60200101907effffffffffffffffffffffffffffffffffffffffffffffffffffffffffffff1916908160001a905350600a8561180391906123e7565b9450611781565b8093505050505b919050565b600080823b905060008111915050919050565b82805461183590612502565b90600052602060002090601f016020900481019282611857576000855561189e565b82601f1061187057805160ff191683800117855561189e565b8280016001018555821561189e579182015b8281111561189d578251825591602001919060010190611882565b5b5090506118ab91906118af565b5090565b5b808211156118c85760008160009055506001016118b0565b5090565b60006118df6118da846122ec565b6122c7565b9050828152602081018484840111156118fb576118fa6126cf565b5b6119068482856124c0565b509392505050565b600061192161191c8461231d565b6122c7565b90508281526020810184848401111561193d5761193c6126cf565b5b6119488482856124c0565b509392505050565b60008135905061195f81612b6d565b92915050565b60008135905061197481612b84565b92915050565b60008135905061198981612b9b565b92915050565b60008151905061199e81612b9b565b92915050565b600082601f8301126119b9576119b86126ca565b5b81356119c98482602086016118cc565b91505092915050565b600082601f8301126119e7576119e66126ca565b5b81356119f784826020860161190e565b91505092915050565b600081359050611a0f81612bb2565b92915050565b600060208284031215611a2b57611a2a6126d9565b5b6000611a3984828501611950565b91505092915050565b60008060408385031215611a5957611a586126d9565b5b6000611a6785828601611950565b9250506020611a7885828601611950565b9150509250929050565b600080600060608486031215611a9b57611a9a6126d9565b5b6000611aa986828701611950565b9350506020611aba86828701611950565b9250506040611acb86828701611a00565b9150509250925092565b60008060008060808587031215611aef57611aee6126d9565b5b6000611afd87828801611950565b9450506020611b0e87828801611950565b9350506040611b1f87828801611a00565b925050606085013567ffffffffffffffff811115611b4057611b3f6126d4565b5b611b4c878288016119a4565b91505092959194509250565b60008060408385031215611b6f57611b6e6126d9565b5b6000611b7d85828601611950565b9250506020611b8e85828601611965565b9150509250929050565b60008060408385031215611baf57611bae6126d9565b5b6000611bbd85828601611950565b9250506020611bce85828601611a00565b9150509250929050565b600060208284031215611bee57611bed6126d9565b5b6000611bfc8482850161197a565b91505092915050565b600060208284031215611c1b57611c1a6126d9565b5b6000611c298482850161198f565b91505092915050565b600060208284031215611c4857611c476126d9565b5b6000611c5684828501611a00565b91505092915050565b60008060408385031215611c7657611c756126d9565b5b6000611c8485828601611a00565b925050602083013567ffffffffffffffff811115611ca557611ca46126d4565b5b611cb1858286016119d2565b9150509250929050565b611cc48161244c565b82525050565b611cd38161245e565b82525050565b6000611ce48261234e565b611cee8185612364565b9350611cfe8185602086016124cf565b611d07816126de565b840191505092915050565b6000611d1d82612359565b611d278185612375565b9350611d378185602086016124cf565b611d40816126de565b840191505092915050565b6000611d5682612359565b611d608185612386565b9350611d708185602086016124cf565b80840191505092915050565b6000611d89603283612375565b9150611d94826126ef565b604082019050919050565b6000611dac601c83612375565b9150611db78261273e565b602082019050919050565b6000611dcf602483612375565b9150611dda82612767565b604082019050919050565b6000611df2601983612375565b9150611dfd826127b6565b602082019050919050565b6000611e15602c83612375565b9150611e20826127df565b604082019050919050565b6000611e38603883612375565b9150611e438261282e565b604082019050919050565b6000611e5b602a83612375565b9150611e668261287d565b604082019050919050565b6000611e7e602983612375565b9150611e89826128cc565b604082019050919050565b6000611ea1602e83612375565b9150611eac8261291b565b604082019050919050565b6000611ec4602083612375565b9150611ecf8261296a565b602082019050919050565b6000611ee7603183612375565b9150611ef282612993565b604082019050919050565b6000611f0a602c83612375565b9150611f15826129e2565b604082019050919050565b6000611f2d602983612375565b9150611f3882612a31565b604082019050919050565b6000611f50602f83612375565b9150611f5b82612a80565b604082019050919050565b6000611f73602183612375565b9150611f7e82612acf565b604082019050919050565b6000611f96603183612375565b9150611fa182612b1e565b604082019050919050565b611fb5816124b6565b82525050565b6000611fc78285611d4b565b9150611fd38284611d4b565b91508190509392505050565b6000602082019050611ff46000830184611cbb565b92915050565b600060808201905061200f6000830187611cbb565b61201c6020830186611cbb565b6120296040830185611fac565b818103606083015261203b8184611cd9565b905095945050505050565b600060408201905061205b6000830185611cbb565b6120686020830184611fac565b9392505050565b60006020820190506120846000830184611cca565b92915050565b600060208201905081810360008301526120a48184611d12565b905092915050565b600060208201905081810360008301526120c581611d7c565b9050919050565b600060208201905081810360008301526120e581611d9f565b9050919050565b6000602082019050818103600083015261210581611dc2565b9050919050565b6000602082019050818103600083015261212581611de5565b9050919050565b6000602082019050818103600083015261214581611e08565b9050919050565b6000602082019050818103600083015261216581611e2b565b9050919050565b6000602082019050818103600083015261218581611e4e565b9050919050565b600060208201905081810360008301526121a581611e71565b9050919050565b600060208201905081810360008301526121c581611e94565b9050919050565b600060208201905081810360008301526121e581611eb7565b9050919050565b6000602082019050818103600083015261220581611eda565b9050919050565b6000602082019050818103600083015261222581611efd565b9050919050565b6000602082019050818103600083015261224581611f20565b9050919050565b6000602082019050818103600083015261226581611f43565b9050919050565b6000602082019050818103600083015261228581611f66565b9050919050565b600060208201905081810360008301526122a581611f89565b9050919050565b60006020820190506122c16000830184611fac565b92915050565b60006122d16122e2565b90506122dd8282612534565b919050565b6000604051905090565b600067ffffffffffffffff8211156123075761230661269b565b5b612310826126de565b9050602081019050919050565b600067ffffffffffffffff8211156123385761233761269b565b5b612341826126de565b9050602081019050919050565b600081519050919050565b600081519050919050565b600082825260208201905092915050565b600082825260208201905092915050565b600081905092915050565b600061239c826124b6565b91506123a7836124b6565b9250827fffffffffffffffffffffffffffffffffffffffffffffffffffffffffffffffff038211156123dc576123db6125df565b5b828201905092915050565b60006123f2826124b6565b91506123fd836124b6565b92508261240d5761240c61260e565b5b828204905092915050565b6000612423826124b6565b915061242e836124b6565b925082821015612441576124406125df565b5b828203905092915050565b600061245782612496565b9050919050565b60008115159050919050565b60007fffffffff0000000000000000000000000000000000000000000000000000000082169050919050565b600073ffffffffffffffffffffffffffffffffffffffff82169050919050565b6000819050919050565b82818337600083830152505050565b60005b838110156124ed5780820151818401526020810190506124d2565b838111156124fc576000848401525b50505050565b6000600282049050600182168061251a57607f821691505b6020821081141561252e5761252d61263d565b5b50919050565b61253d826126de565b810181811067ffffffffffffffff8211171561255c5761255b61269b565b5b80604052505050565b6000612570826124b6565b91507fffffffffffffffffffffffffffffffffffffffffffffffffffffffffffffffff8214156125a3576125a26125df565b5b600182019050919050565b60006125b9826124b6565b91506125c4836124b6565b9250826125d4576125d361260e565b5b828206905092915050565b7f4e487b7100000000000000000000000000000000000000000000000000000000600052601160045260246000fd5b7f4e487b7100000000000000000000000000000000000000000000000000000000600052601260045260246000fd5b7f4e487b7100000000000000000000000000000000000000000000000000000000600052602260045260246000fd5b7f4e487b7100000000000000000000000000000000000000000000000000000000600052603260045260246000fd5b7f4e487b7100000000000000000000000000000000000000000000000000000000600052604160045260246000fd5b600080fd5b600080fd5b600080fd5b600080fd5b6000601f19601f8301169050919050565b7f4552433732313a207472616e7366657220746f206e6f6e20455243373231526560008201527f63656976657220696d706c656d656e7465720000000000000000000000000000602082015250565b7f4552433732313a20746f6b656e20616c7265616479206d696e74656400000000600082015250565b7f4552433732313a207472616e7366657220746f20746865207a65726f2061646460008201527f7265737300000000000000000000000000000000000000000000000000000000602082015250565b7f4552433732313a20617070726f766520746f2063616c6c657200000000000000600082015250565b7f4552433732313a206f70657261746f7220717565727920666f72206e6f6e657860008201527f697374656e7420746f6b656e0000000000000000000000000000000000000000602082015250565b7f4552433732313a20617070726f76652063616c6c6572206973206e6f74206f7760008201527f6e6572206e6f7220617070726f76656420666f7220616c6c0000000000000000602082015250565b7f4552433732313a2062616c616e636520717565727920666f7220746865207a6560008201527f726f206164647265737300000000000000000000000000000000000000000000602082015250565b7f4552433732313a206f776e657220717565727920666f72206e6f6e657869737460008201527f656e7420746f6b656e0000000000000000000000000000000000000000000000602082015250565b7f45524337323155524953746f726167653a2055524920736574206f66206e6f6e60008201527f6578697374656e7420746f6b656e000000000000000000000000000000000000602082015250565b7f4552433732313a206d696e7420746f20746865207a65726f2061646472657373600082015250565b7f45524337323155524953746f726167653a2055524920717565727920666f722060008201527f6e6f6e6578697374656e7420746f6b656e000000000000000000000000000000602082015250565b7f4552433732313a20617070726f76656420717565727920666f72206e6f6e657860008201527f697374656e7420746f6b656e0000000000000000000000000000000000000000602082015250565b7f4552433732313a207472616e73666572206f6620746f6b656e2074686174206960008201527f73206e6f74206f776e0000000000000000000000000000000000000000000000602082015250565b7f4552433732314d657461646174613a2055524920717565727920666f72206e6f60008201527f6e6578697374656e7420746f6b656e0000000000000000000000000000000000602082015250565b7f4552433732313a20617070726f76616c20746f2063757272656e74206f776e6560008201527f7200000000000000000000000000000000000000000000000000000000000000602082015250565b7f4552433732313a207472616e736665722063616c6c6572206973206e6f74206f60008201527f776e6572206e6f7220617070726f766564000000000000000000000000000000602082015250565b612b768161244c565b8114612b8157600080fd5b50565b612b8d8161245e565b8114612b9857600080fd5b50565b612ba48161246a565b8114612baf57600080fd5b50565b612bbb816124b6565b8114612bc657600080fd5b5056fea2646970667358221220b07cbb97ef3be561423c22659cce2ea6c570cb39ffcba1cba7af82e80a11750a64736f6c63430008060033",
  "immutableReferences": {},
  "source": "pragma solidity ^0.8.0;\r\n\r\nimport \"@openzeppelin/contracts/token/ERC721/extensions/ERC721URIStorage.sol\";\r\n\r\ncontract NFT is ERC721URIStorage {\r\n\r\n   constructor(string memory _name, string memory _symbol)  ERC721(_name, _symbol){}\r\n\r\n    /*\r\n    When an NFT is registered an event is triggered\r\n    which shows which NFT has been registered\r\n    _by represents the who registered the NFT\r\n    _tokenId represents the specific NFT \r\n    */\r\n    event NFTRegistered(address _by, uint256 _tokenId);\r\n\r\n    /*\r\n    registerNFT is a public function used to register an NFT\r\n    it uses _mint function of the ERC721 token\r\n    _tokenId will represent an NFT and _uri will contain metadata\r\n    */\r\n    function registerNFT(uint256 _tokenId, string memory _uri) public {\r\n       _mint(msg.sender, _tokenId);\r\n       addNFTMetadata(_tokenId, _uri);\r\n       emit NFTRegistered(msg.sender, _tokenId);\r\n    } \r\n\r\n\r\n    function  addNFTMetadata(uint256 _tokenId, string memory _uri) public returns(bool){\r\n        _setTokenURI(_tokenId, _uri);\r\n        return true;\r\n    }\r\n\r\n}",
  "sourcePath": "D:/nft/src/contracts/NFT.sol",
  "compiler": {
    "name": "solc",
    "version": "0.8.6+commit.11564f7e.Emscripten.clang"
  },
  "schemaVersion": "3.4.1",
  "updatedAt": "2021-07-04T23:49:44.511Z",
  "networkType": "ethereum",
  "devdoc": {
    "kind": "dev",
    "methods": {
      "approve(address,uint256)": {
        "details": "See {IERC721-approve}."
      },
      "balanceOf(address)": {
        "details": "See {IERC721-balanceOf}."
      },
      "getApproved(uint256)": {
        "details": "See {IERC721-getApproved}."
      },
      "isApprovedForAll(address,address)": {
        "details": "See {IERC721-isApprovedForAll}."
      },
      "name()": {
        "details": "See {IERC721Metadata-name}."
      },
      "ownerOf(uint256)": {
        "details": "See {IERC721-ownerOf}."
      },
      "safeTransferFrom(address,address,uint256)": {
        "details": "See {IERC721-safeTransferFrom}."
      },
      "safeTransferFrom(address,address,uint256,bytes)": {
        "details": "See {IERC721-safeTransferFrom}."
      },
      "setApprovalForAll(address,bool)": {
        "details": "See {IERC721-setApprovalForAll}."
      },
      "supportsInterface(bytes4)": {
        "details": "See {IERC165-supportsInterface}."
      },
      "symbol()": {
        "details": "See {IERC721Metadata-symbol}."
      },
      "tokenURI(uint256)": {
        "details": "See {IERC721Metadata-tokenURI}."
      },
      "transferFrom(address,address,uint256)": {
        "details": "See {IERC721-transferFrom}."
      }
    },
    "version": 1
  },
  "userdoc": {
    "kind": "user",
    "methods": {},
    "version": 1
  }
}